:060000000A128A110C280F
:10000800FE00030EF0000A08F1000A128A155E28A5
:100018000A128A110F28A030FA01FB018313840009
:10002800C4300A128A15342083010A168A15492D0C
:10003800831607138713C0308B048C168312280885
:10004800031D080001302702031D3028C230260294
:10005800031D302801302502031808002808031D55
:1000680040282708031D402801302602031D3E288A
:100078002C302502031C0800803025062530031982
:10008800260627042804031D5F2897200A128A11D0
:1000980051250A128A1181200A128A1151250A1241
:1000A8008A117308AF007208AE00FF30AE0703185C
:1000B800AF0AAF076D2897200A128A1151250A1234
:1000C8008A1181200A128A1151257308AF0072081B
:1000D800AE008316181503178715831203132E080D
:1000E8008316990083122F0883169A001812831218
:1000F800981718168316981608007508AC00740827
:10010800AB007308AA007208A9000430F200F301DA
:10011800F401F5012C08F9002B08F8002A08F7006B
:100128002908F60008002808F5002708F400260822
:10013800F3002508F2007A30F901F8001230F700D0
:10014800F60108008316D6005630C70093270A1612
:100158008A1500200A128A118316DA005A08031930
:10016800862C25305A060319BD28560884005A08DB
:10017800822CC801C901D8270A168A1500200A123C
:100188008A112E3A031D0429831649178312D40AAB
:100198000319D50A8316D401D501D8270A168A155A
:1001A80000200A128A1130270A128A11031C0B290F
:1001B80083165508F3005408F2000A30F400F501DC
:1001C8009A250A128A11D8270A168A1500200A12B7
:1001D8008A117207D9000030031801307307DA005A
:1001E8005908D03E8316D40083125A080318013EDA
:1001F800FF3E8316D5008312D40A0319D50AD128E5
:100208008316D401D50149160B2949151A299327B4
:100218000A168A1500200A128A118316DA00003A93
:100228000319862C663A03190929AA28831207306C
:10023800D901831649058312DA0059040319442C9D
:100248008316491E2A290630D400D50147088400A0
:1002580083130008D700840A0008D800840A00081D
:10026800D9000330C70757088312CE0083165808F1
:100278008312CF00831659088312D000D101D2010E
:10028800D3018B240A128A1103185C298316570894
:10029800F2005808F3005908F400B3250A128A112D
:1002A8007208D7007308D8007408D9000330C8044E
:1002B8008316D201D3015908580457040319032A95
:1002C800D7308400831300088312D900840A0008F9
:1002D800DA00840A0008DB00840A0008DC000F301A
:1002E8000310DC0CDB0CDA0CD90CFF3E031D74295F
:1002F8005A088316D300831259088316D200823015
:10030800D301D207031CD303FF30D207031CD30346
:100318000330F200F3015308F5005208F4009A255F
:1003280073088316D3007208D2000A308312A00023
:10033800A101831653088312A3008316520883125F
:10034800A2000A168A1128260A128A112108831681
:10035800D300831220088316D200D31FB729FF3099
:10036800D207031CD3035203FF3A0A168A118E24BC
:100378000A128A117E270A128A11B72783164E0895
:100388008312AB0083164F088312AC008316500803
:100398008312AD000A168A11AA260A128A112808A1
:1003A8008316CE00831229088316CF0083122A08E9
:1003B8008316D00055270A128A118030D101D20045
:1003C8003F30D3008B240A128A110318F129FF3019
:1003D8008316D207031CD303032A831655270A1250
:1003E8008A112030D101D2004130D3008B240A1267
:1003F8008A11031C032A8316D20A0319D30A831607
:100408005508803AFF0080307F02031D0D2A0D3009
:1004180054020318372A8316031354080A168A1538
:100428009D260A128A113708C2003808C300390805
:10043800C400831657088312C50083165808831210
:10044800C600831659088312C700BB250A128A11F1
:1004580042088316D700831243088316D8008312F4
:1004680044088316D900831603135308803AFF0003
:1004780080307F02031D422A0A3052020318632A81
:100488008316031359085804570403199E2AA027F2
:100498000A128A11B7240A128A114508440443042F
:1004A8004204031D9E2A83165308803AFF008030B9
:1004B8007F02031D612A02305202031C9E2A831602
:1004C800031355270A128A117030D1008930D200DF
:1004D8004030D3008B240A128A110318752AF7308A
:1004E800762AF8308316D207031CD30352080A165B
:1004F8008A118E240A128A117E270A128A11F200A2
:100508005808F3005908F4004E08F5004F08F600A3
:100518005008F700B8260A128A1175088316CD000C
:100528007408CC007308CB007208CA00D701D80140
:10053800D901DE2A83160313A0270A128A11B724C9
:100548000A128A1161270A128A11CA004D088312F9
:10055800A30083164C088312A20083164B0883124B
:10056800A10083164A088312A00098260A128A114D
:100578002008CE002108CF002208D0008316570893
:100588008312D100831658088312D20083165908A3
:100598008312D3007D260A128A114E088316D700CB
:1005A80083124F088316D800831250088316D90087
:1005B800D201D301DA01DA0A5A088312D9000130CC
:1005C8000310D90DFF3E0310031DE52A8B270A16D9
:1005D8008A1500200A128A11DA000A168A150020E4
:1005E8000A128A11DB000A168A1500200A128A11DB
:1005F800DC000A168A1500200A128A11DD0083160B
:100608004D02031D172B83125C0883164C02031D31
:10061800172B83125B0883164B02031D172B8312BB
:100628005A0883164A02031C1E2B0A30DA0A5A0695
:10063800031DE02A4808033903195A2B5608840079
:100648002D30572B5A088312D90001300310D90DC9
:10065800FF3E0310031D2B2B8B270A168A1500203B
:100668000A128A11F2000A168A1500200A128A1143
:10067800F3000A168A1500200A128A11F4000A16D5
:100688008A1500200A128A11AC270A128A115125EC
:100698000A128A113E270A128A1112250A128A1191
:1006A80070270A128A1183138000D60ADA035A0FB8
:1006B800262B5308803AFF0080307F02031D662BEB
:1006C80001305202031C712B83160313C2270A122E
:1006D8008A11D207031CD3035D2B83160313550815
:1006E800803AFF0080307F02031D7C2B09305402C2
:1006F800031C822B083083160313852B83160313E0
:100708005408DA00CA270A128A11D40283125A0836
:100718008316031CD503D5025A080319992B5608CA
:1007280084002E3083138000D60A5A080A168A11CC
:100738008E240A128A1137088316C40083123808D7
:100748008316C500831239088316C600440883122D
:10075800AB00831645088312AC0083164608831243
:10076800AD0083165708B7270A168A11AA260A1257
:100778008A112808C2002908C3002A08C400B7241F
:100788000A128A1161270A128A11352C5A08831213
:10079800D90001300310D90DFF3E0310031DCF2BE4
:1007A8008B270A168A1500200A128A11F2000A16E7
:1007B8008A1500200A128A11F3000A168A150020E9
:1007C8000A128A11F4000A168A1500200A128A11E0
:1007D800AC270A128A1151250A128A113E270A12D9
:1007E8008A1112250A128A1170270A128A11831394
:1007F8008000D60A5A088312D90001300310D90D97
:10080800FF3E0310031D032C8B270A168A150020B0
:100818000A128A11F2000A168A1500200A128A1191
:10082800F3000A168A1500200A128A11F4000A1623
:100838008A1500200A128A11F50083164D08F9005E
:100848004C08F8004B08F7004A08F60012250A126F
:100858008A1175088316CD007408CC007308CB0084
:100868007208CA00DA035A0FCA2B54085504031930
:10087800AA28C2270A128A11D407031CD503392CC7
:10088800831654085504031D512C4D084C044B0481
:100898004A040319D40A0319D50A5A088312D9003D
:1008A800DA01D91BDA035A08803ADB0083165508A7
:1008B800803A83125B02031D652C83165408831249
:1008C8005902031C792C831603135A08CA270A12E3
:1008D8008A115508803A8312DB005A08803A5B0275
:1008E800031D792C590883165402831603134808EC
:1008F80003390319AA28560884002D308313800071
:10090800D60AAA2856088400831380010800D01F3D
:100918009A2C4E08003CCE004F08031C4F0F003C99
:10092800CF005008031C500F803CD000D31FA92CC7
:100938005108003CD1005208031C520F003CD20061
:100948005308031C530F803CD3008030D006D306D5
:1009580053085002031D080052084F02031D0800E7
:1009680051084E020800D1270A128A110310470DB8
:10097800480DCE004E08031DC62CC201C301C40198
:10098800C5010800D1270A128A1117300310C80CB4
:10099800C70CC60CFF3E031DCA2C4608C900C31766
:1009A800C4014208CA004308CB004408CC008E307A
:1009B800CD01CE02CE1FED2C4E08803A8F3E031C8F
:1009C800C12C0310CD0CCC0CCB0CCA0CCE0FE52CD3
:1009D800FB2C18304E020318C12C4E080319FB2CAF
:1009E8000310CA0DCB0DCC0DCD0DCE03F12C49084B
:1009F8000319092DCA09CB09CC09CD09CA0A03195B
:100A0800CB0A0319CC0A0319CD0A4D08C5004C08B6
:100A1800C4004B08C3004A08C200080075087404E3
:100A2800730472040319482D8312A001A00AF51B50
:100A3800232D0310F20DF30DF40DF50D1A2D750885
:100A48007902031D312D74087802031D312D7308B6
:100A58007702031D312D72087602031C422D72089D
:100A6800F6027308031C730FF7027408031C740F53
:100A7800F8027508031C750FF9020310F50CF40C45
:100A8800F30CF20CA00B232D7908F5007808F4007C
:100A98007708F3007608F20008008312A001A1018C
:100AA800A201A30175087404730472040319912D3B
:100AB800A401A40AF51B662D0310F20DF30DF40D25
:100AC800F50D5D2D0310A00DA10DA20DA30D750848
:100AD8007902031D792D74087802031D792D730896
:100AE8007702031D792D72087602031C8B2D72087C
:100AF800F6027308031C730FF7027408031C740FC3
:100B0800F8027508031C750FF90220140310F50C80
:100B1800F40CF30CF20CA40B662D2308F500220844
:100B2800F4002108F3002008F2000800F601F7019C
:100B3800721CA42D7408F6070318F70A7508F7073E
:100B48000310F40DF50D0310F30CF20C7208730486
:100B5800031D9C2D7708F3007608F200080074083E
:100B680073047204031908008030F4060800420870
:100B7800C8004308C9004408CA000310490D4A0DBB
:100B8800CD004508C8004608C9004708CA00031038
:100B9800490D4A0DCC004D080319DE2D4C084D02B5
:100BA8004C080318E62DC8004D08C8021930480241
:100BB800031CE52D4508C2004608C3004708C400C9
:100BC80008004C08031908004D084C020318F42DBE
:100BD8004D08C8004C08C80219304802031808001C
:100BE8000630CB00C41BCB17C71B4B17C317C40158
:100BF800C617C7014C084D0203181B2E0310C50D5C
:100C0800C60DC70DCC034C084D060319162ECB0391
:100C18004B0807390319162E022E0310C40CC30CF7
:100C2800C20CCD0A4D084C060319372E112E4D085B
:100C38004C020318372E0310C20DC30DC40DCD038B
:100C48004C084D060319332ECB034B0807390319FB
:100C5800332E1F2E0310C70CC60CC50CCC0A4D082A
:100C68004C06031D2E2ECB1F422EFF30C206C30694
:100C7800C406C20A0319C30A0319C40A4B1F4D2E1E
:100C8800FF30C506C606C706C50A0319C60A0319F2
:100C9800C70ACB014208C507430803110318430AD2
:100CA800031DC607440803110318440A031DC70798
:100CB800C71F692EFF30C506C606C706C50A031931
:100CC800C60A0319C70ACB01CB0A4508F200460831
:100CD800F3004708F4004D08F5004B08F6000A1623
:100CE8008A1125277208C2007308C3007408C4005B
:100CF800080050084F044E040319842E8030D00693
:100D08005108C2005208C3005308C4004E08C50069
:100D18004F08C6005008C700BB254208CE0043084C
:100D2800CF004408D00008008E30A400FF3023050F
:100D38000319A52E0310A30CA20CA10CA00CA40A45
:100D48009A2E2008F2002108F3002208F400240853
:100D5800F500F6010A168A1125277208A000730803
:100D6800A1007408A200080072088312A00073088A
:100D7800A1007408A2000310210D220DA800280864
:100D8800031DCB2EF201F301F401F50108007508EB
:100D9800A0007608A1007708A2000310210D220DFB
:100DA800A70027080319C62E7F30F317F401F6179A
:100DB800F701A301A401A501A601A80298302707FD
:100DC800A000A8021830A7000310A30DA40DA50DBC
:100DD800A60D77087402031DF72E76087302031D0B
:100DE800F72E75087202031C052F7508F2027608A3
:100DF800031C760FF3027708031C770AF402231406
:100E08000310F20DF30DF40DA70BE82EA81F192FF0
:100E18002808803A973E031CC62E0310A60CA50C82
:100E2800A40CA30CA80F112F272F18302802031881
:100E3800C62E28080319272F0310A30DA40DA50DEE
:100E4800A60DA8031D2F2608F5002508F400240880
:100E5800F3002308F2000800F3003A30F2017302AD
:100E680003183C2F30307302031C3C2FF201F20AA6
:100E7800720C080075088316D1007408D000730836
:100E8800CF007208CE000A30F200F301F401F50138
:100E98005108F9005008F8004F08F7004E08F6000E
:100EA80008004E088312CE0083164F088312CF0025
:100EB800831650088312D000080045088316CD0019
:100EC800831244088316CC00831243088316CB0090
:100ED800831242088316080075088316D100740827
:100EE800D0007308CF007208CE00560884004E0860
:100EF800303E080037088316CE0083123808831660
:100F0800CF00831239088316D00057080800590DFE
:100F1800603E840098300318013EFF0008008312E9
:100F28005508DA005408D900D40A0319D50A5A0812
:100F3800FF0059088400080057088312C20083166E
:100F480058088312C300831659088312C400080086
:100F5800F50083164D08F9004C08F8004B08F70017
:100F68004A08F60008008312A8008316580883125E
:100F7800A900831659088312AA000800560884009D
:100F8800303083138000FF30D60A08008312D9005E
:100F9800DA01D91BDA03831608004208C6004308A1
:100FA800C7004408C800080083125508FF00540809
:100FB80084000800FA018316B001FB01B101A90100
:100FC800AA01AD01AC01AF01AB01AB0AB301B2019B
:100FD800AE01AE0AA701A801080083121008CF3994
:100FE80010389000D8308F00EF308E0083160C1424
:080FF8008B178312101408008E
:10104400831686138613080083120712871007106D
:10105400871185120800031705140508E1390C38B7
:101064008500080064008001840A04060319003422
:1010740004063528831681128115073081048B17E5
:10108400831281018B1608001E3083168504851295
:10109400013003178805803003138705871708007C
:1010A40083160313051403170814831203139F01F3
:1010B40083169F170C1308000B1D65280B11831250
:1010C400031381018428831203130C102C3083161C
:1010D4002906031D75282A03031D7528A901AA01E1
:1010E400AD01AD0A7C28C83029062A04031D7C28DA
:1010F400AB01AB0AA90A0319AA0AD83083128F00DC
:10110400EF308E0071088A00700E8300FE0E7E0E92
:1011140009006F30D4009930D5005E08D6005F080E
:10112400D7006008D800B9300A128A11A6200A1222
:101134008A150130F601F60A85260A128A15FF304F
:10114400F7009830F800AE260A128A150230F6012C
:10115400F60A85260A128A15B930F700F801AE2678
:101164000A128A150630F600023085260A128A15FC
:101174002B30F7009930F800AE2E6F30D400993040
:10118400D5005E08D6005F08D7006008D800B930E3
:101194000A128A11A6200A128A150130F601F60AEB
:1011A40085260A128A15EE30F7009830F800AE262C
:1011B4000A128A150230F601F60A85260A128A15E1
:1011C400B930F700F801AE260A128A150630F60087
:1011D400023085260A128A152B30F7009930F80060
:1011E400AE2E6F30D4009930D5005E08D6005F086B
:1011F400D7006008D800B4300A128A11A6200A1257
:101204008A150130F601F60A85260A128A158830F5
:10121400F7009830F800AE260A128A150230F6015B
:10122400F60A85260A128A15B430F700F801AE26AC
:101234000A128A150630F600023085260A128A152B
:101244001E30F7009930F800AE2E0130F601F60A90
:1012540085260A128A159930F7009830F800AE26D0
:101264000A128A1583162E0803194F2983122C0893
:10127400A5002B08A4000230A600A701A70AA123F9
:101284000A128A150530F600023085260A128A15DC
:101294003830F7009930F800AE2E0230F601F60A25
:1012A40085260A128A15AA30F7009830F800AE2E67
:1012B4006F308312D4009930D50003304B26760862
:1012C400D6007708D7007808D800B4300A128A11FB
:1012D400A6200A128A150130F601F60A85260A129A
:1012E4008A15CC30F7009830F800AE260A128A1519
:1012F4000230F601F60A85260A128A15B430F70080
:10130400F801AE260A128A150630F6000230852648
:101314000A128A152230F7009930F800AE260A1214
:101324008A1583163208031D0800640068220A1215
:101334008A157B080319FC29831203138030C20128
:10134400C3003F30C40003304B267608C50077083D
:10135400C6007808C7000A128A11BB250A128A152A
:101364004208CE004308CF004408D0000330C6260C
:101374000A128A1583120313C630CE01CF004230FD
:10138400D00003304B267608D1007708D2007808C5
:10139400D3000A128A118B240A128A150318DB2936
:1013A400C630CE01CF004230D0000330C6260A1228
:1013B4008A156F30FB0183120313D4009930D500D2
:1013C40003304B267608D6007708D7007808D80073
:1013D400B4300A128A11A6200A128A150230F601C4
:1013E400F60A85260A128A15B430F700F801AE26EB
:1013F4000A128A1583160313310803195D2A83120E
:101404008030C201C300BF30C40003304B267608CD
:10141400C5007708C6007808C7000A128A11BB25E0
:101424000A128A154208CE004308CF004408D000AF
:101434000330C6260A128A1503304B267608CE00DE
:101444007708CF007808D000F030D101D2004130C5
:10145400D3000A128A118B240A128A1503183B2A14
:10146400F030CE01CF004130D0000330C6260A123E
:101474008A15831603136F30B1018312D400993097
:10148400D50003304B267608D6007708D7007808B5
:10149400D800B4300A128A11A6200A128A15023022
:1014A400F601F60A85260A128A15B430F700F80107
:1014B400AE260A128A157A0803199329FA018316AB
:1014C400B301B30AC6220A128A159329831203139D
:1014D400051D872A3430F300F130F200F20B702A34
:1014E400F30B702A752A83120313051D7B2AFB0153
:1014F400FB0A0230F4008630F3009930F200F20B5C
:10150400812AF30B812AF40B812A83120313851D8C
:10151400A72A3430F300F130F200F20B8F2AF30BD8
:101524008F2A942A83120313851D9B2A8316B101E3
:10153400B10A0230F4008630F3009930F200F20B65
:10154400A12AF30BA12AF40BA12A83120313851CED
:1015540008003430F300F130F200F20BAF2AF30B41
:10156400AF2AB42A83120313851CBA2AFA01FA0A91
:101574008518BA2A3430F300F130F200F20BC02A95
:10158400F30BC02AC52A08000130F601F60A8526A5
:101594000A128A15DD30F7009830F800AE260A12D8
:1015A4008A150230F601F60A85260A128A152030B9
:1015B400F7009930F800AE260A128A150230F601B7
:1015C400F60A85260A128A1506305B260A128A153F
:1015D4007708A5007608A4000230A600A701A70A90
:1015E400A1230A128A150630F600023085260A1253
:1015F4008A152230F7009930F800AE260A128A15AF
:101604007A08031D0800640068220A128A157B0800
:1016140003194B2B06305B260A128A157608643EA2
:10162400A30077080318013E003EA40006309A2365
:101634000A128A1506305B260A128A157708803A40
:10164400FF0093307F02031D292B89307602031C8F
:10165400352B883083120313A3001330A400063003
:101664009A230A128A150230FB01F601F60A85262E
:101674000A128A1506305B260A128A157708A50015
:101684007608A4000230A600A701A70AA1230A1223
:101694008A158316031331080319912B06305B2630
:1016A4000A128A1576089C3EA30077080318013EA7
:1016B400FF3EA40006309A230A128A1506305B26E0
:1016C4000A128A157708803AFF0081307F02031DD1
:1016D4006D2B2C3076020318792B2C3083120313D4
:1016E400A3000130A40006309A230A128A15831637
:1016F40003130230B101F601F60A85260A128A158F
:1017040006305B260A128A157708A5007608A4001D
:101714000230A600A701A70AA1230A128A157A0893
:101724000319022BFA01FA0A8316B201B20A022B38
:10173400F9002330F2000230F3007908952FE830E5
:10174400A901A801F2000330F3002508F5002408DC
:10175400F400F2260A128A157208AA002A08031D48
:10176400BD2BA901A90A2708F600260885260A1216
:101774008A152030C52B0230F601F60A85260A1296
:101784008A152A08303ECD262A08F200E830F301F3
:10179400F4000330F5000A128A119A250A128A15F8
:1017A40072088312A4027308031CA503A502643003
:1017B400F200F3012508F5002408F400F2260A12C9
:1017C4008A157208AA002A08031DF62B2908031992
:1017D400F62BA801A80A2708013EF600260885264C
:1017E4000A128A152030FD2B0230F60085260A12D3
:1017F4008A152A08303ECD262A08F2006430F30107
:10180400F400F5010A128A119A250A128A1572083F
:101814008312A4027308031CA503A5020A30F20074
:10182400F3012508F5002408F400F2260A128A15AB
:101834007208AA002A08031D2E2C290803192E2C2D
:10184400280803192E2C2708023EF60026088526B0
:101854000A128A152030362C0330F6000230852611
:101864000A128A152A08303ECD262A08F2000A30C8
:10187400F301F400F5010A128A119A250A128A1555
:1018840072088312A4027308031CA503A50224088A
:10189400AA002708033EF600260885260A128A15A0
:1018A4002A08303ECD2E6F308312D4009930D500F3
:1018B40000304B267608D6007708D7007808D80081
:1018C400B9300A128A11A6200A128A150130F601CB
:1018D400F60A85260A128A15BB30F7009830F800FC
:1018E400AE260A128A150230F601F60A85260A1275
:1018F4008A15B930F700F801AE260A128A150630A7
:10190400F600023085260A128A152130F700993034
:10191400F800AE260A128A1583163308031D622DB9
:10192400640068220A128A157B080319F82CCD304A
:1019340083120313C200CC30C3003D30C400003016
:101944004B267608C5007708C6007808C7000A1237
:101954008A11BB250A128A154208CE004308CF001B
:101964004408D0000030C6260A128A1583120313D5
:101974002030CE01CF004230D00000304B26760814
:10198400D1007708D2007808D3000A128A118B2478
:101994000A128A150318D72C2030CE01CF0042300A
:1019A400D0000030C6260A128A156F30FB0183125C
:1019B4000313D4009930D50000304B267608D600A6
:1019C4007708D7007808D800B9300A128A11A620FF
:1019D4000A128A150230F601F60A85260A128A15B9
:1019E400B930F700F801AE260A128A1583160313DC
:1019F400310803195A2DCD308312C200CC30C300F4
:101A0400BD30C40000304B267608C5007708C600F8
:101A14007808C7000A128A11BB250A128A154208DF
:101A2400CE004308CF004408D0000030C6260A1276
:101A34008A1500304B267608CE007708CF00780848
:101A4400D0007030D101D2004130D3000A128A1183
:101A54008B240A128A150318382D7030CE01CF005A
:101A64004130D0000030C6260A128A1583160313AB
:101A74006F30B1018312D4009930D50000304B2669
:101A84007608D6007708D7007808D800B9300A124B
:101A94008A11A6200A128A150230F601F60A852652
:101AA4000A128A15B930F700F801AE260A128A150F
:101AB4007A0803198E2CFA015A210A128A158E2CDF
:101AC400FA01B301B20108008312071E7C2D003015
:101AD4004B260A128A157608CE007708CF007808BC
:101AE400D1270A128A118B240A128A150318972DFA
:101AF4000712972DDF270A128A15CD30C200CC3089
:101B0400C300BE30C40000304B260A128A15EC27ED
:101B14000A128A11BB250A128A15F9270A128A1198
:101B24008B240A128A15031C0716871DAD2DDF2787
:101B34000A128A1500304B267608D1007708D200A5
:101B44007808D3000A128A118B240A128A15031802
:101B5400C82D8711C82DCD30C200CC30C3003E3013
:101B6400C40000304B260A128A15EC270A128A1187
:101B7400BB250A128A15F3270A128A15D1270A12DD
:101B84008A118B240A128A15031C8715871CF02DD1
:101B94002030C201C3004030C40003304B260A1277
:101BA4008A15EC270A128A11BB250A128A15F32713
:101BB400D00083163E088312D10083163F08831297
:101BC400D200831640088312D3000A128A118B2490
:101BD4000A128A150318132E8710132E83163E0833
:101BE4008312CE0083163F088312CF008316400869
:101BF4008312D0002030C201C300C030C4000330BF
:101C04004B260A128A15EC270A128A11BB250A12DE
:101C14008A15F9270A128A118B240A128A15031CC1
:101C2400871483162E08031908008312071C332E09
:101C340006305B260A128A157608063ED400770819
:101C44000318013EFF3ED50083162802031D2E2EE5
:101C540083125408831627020318080083120710FE
:101C6400080006305B260A128A157608FA3ED4006C
:101C740077080318013ED5008316280883125502FD
:101C8400031D482E8316270883125402031C0714CD
:101C9400080083120313A300F2000330F300203082
:101CA400692603132008F6002108F7002208F8002B
:101CB400080083120313A200F2000230F300203064
:101CC400692603132108F7002008F6000800F50030
:101CD4007508F400831603178C186C2E720883128F
:101CE4008D00F303730F772E080083168C18772E5C
:101CF4008C130C147408840083120C088313800062
:101D0400F40A8D0A732E83120313A000200B9A2E5B
:101D140076087F3EA300230E0F39A1002308A200FA
:101D24000F30A205210867270A128A152208672F97
:101D340002302006031D08007608BF3EA300230ED0
:101D44000F39A1002308A2000F30A205210867273C
:101D54000A128A152208672FA301A401C0270A16B4
:101D64008A1500200A128A15003A03190800C027B0
:101D74000A168A1500200A128A15CD260A128A1517
:101D8400A30A0319A40AB02ED1004E30F200033086
:101D9400F3005108952FF600F4000F30F40576088F
:101DA400F500F030F5058616750E0F397D270A12F9
:101DB4008A1506161A30F300F30BDE2E0000831288
:101DC4000313061274087D270A128A1506161A30A0
:101DD400F300F30BEB2E000083120313061208002A
:101DE400F601F701720873040319172FF801F80AB2
:101DF400F31B002F0310F20DF30DF92E0310F60D53
:101E0400F70D73087502031D092F72087402031C71
:101E1400132F7208F4027308031CF503F5027614F9
:101E24000310F30CF20CF80B002F7708F30076087C
:101E3400F200080083168117C030031789050313C5
:101E4400860100307D270A128A153430F700F130FC
:101E5400F600F60B2B2FF70B2B2F302F03306727B1
:101E64000A128A150D30F700FB30F600F60B382FF6
:101E7400F70B382F3D2F033067270A128A151D30C0
:101E8400F7009130F600F60B452FF70B452F033082
:101E940067270A128A15023067270A128A15023048
:101EA40067270A128A15083067270A128A15003034
:101EB40067270A128A150C3067270A128A15003020
:101EC40067270A128A150630672FF5008312031359
:101ED400861275087D270A128A1506160B30F4003F
:101EE4006230F300F30B742FF40B742F0000831291
:101EF400031306120800F200721C832F83120614C7
:101F0400852F83120610F21C892F86148A2F8610BF
:101F1400721D8E2F06158F2F0611F21D932F861515
:101F2400080086110800F5007208F40083160317F0
:101F34008C18982F7508FF3E83128D0083168C131E
:101F4400F303730FA62F08008C18A62F74088400BF
:101F54008313000883128C00F40A8D0A03108B1B70
:101F640003148B1383160C1555308D00AA308D0085
:101F74008C140C11031CA22F8B17A22F2308770794
:101F8400A1007808A0000318A00AA31BA0038312D1
:101F940003132008A200FF00210884000800D000D9
:101FA400831641088312D100831642088312D2009B
:101FB400831643088312D300080083164108831252
:101FC400CE00831642088312CF008316430883127F
:101FD400D00008007608C5007708C6007808C70056
:101FE40008004208CE004308CF0044080800420815
:0C1FF400D1004308D2004408D3000800CC
:102156006E210A168A11003A031D0E29CC3017216A
:102166000A168A11443017210A168A11083083127A
:102176000313D3009D30D2000B30D100D10BC12800
:10218600D20BC128D30BC128C8286E210A168A1182
:10219600CC3017210A168A11BE3017210A168A1169
:1021A60047210A168A1183120313D700D801472143
:1021B6000A168A1183120313D900DA01DC00DB0147
:1021C6005708DB070318DC0A5808DC079A30C200F8
:1021D6009930C300BE30C4008030A801A9003D304C
:1021E600AA005C08A1005B08A00047220A168A1113
:1021F6002008AB002108AC002208AD00AA260A166A
:102206008A11C4270A128A11BB254208D400430842
:10221600D5004408D600831203135408CE0055088F
:10222600CF005608D0000800F30083160313871664
:10223600F4010130F200740A22290310F20DFF3E68
:10224600031D20297208730503193629F3270A1678
:102256008A112D298316031387162730F200F20BF5
:10226600322935294129F3270A168A112730F20027
:10227600F20B3B293E298316031387160830F40A0E
:102286007402031808001C29F3018316031387162A
:10229600F401F3270A168A115029512983160313CC
:1022A60087168312871E62290130F200740A5D299F
:1022B6000310F20DFF3E031D5B297208F30427305D
:1022C600F200F20B642967290830F40A7402031C31
:1022D6004C2973080800F3270A168A118930F20080
:1022E60074297529F20B7329831603138716273071
:1022F600F200F20B7C297F2983120313871A8A299D
:102306008930F20086298729F20B85290034893025
:10231600F2008D298E29F20B8C290134F70009234E
:102326000A168A11073033230A168A11F80077082D
:1023360084000130D9220A168A1183138000760898
:1023460084000030D92283138000780808008316A1
:10235600C800CD30C901F6000330F700CA30572255
:102366000A168A118316C907CD30F6000230F70027
:10237600CE3057220A168A118316C907CD30F600C9
:10238600C73091210A168A118316C907490803190D
:10239600ED2963230130F601F60A0A128A1585260D
:1023A6000A168A111030F7009930F8000A128A15B9
:1023B600AE260A168A110B308316C6002630C500D3
:1023C6006630C400C40BE529C50BE529C60BE52913
:1023D600EC29080023088312A10083162208831221
:1023E600A00047220A168A1120088316CA00831203
:1023F60021088316CB00831222088316CC002108FD
:102406008312A100831620088312A00047220A1611
:102416008A1120088316CE00831221088316CF0066
:10242600831222088316D0004A088312D40083162A
:102436004B088312D50083164C088312D600CE3083
:10244600D7007A2354088316CA00831255088316C8
:10245600CB00831256088316CC00480884004E0829
:102466008000840A4F088000840A50088000831286
:102476006D08840083164A088000840A4B08800091
:10248600840A4C08800008002008F2002108F300A6
:102496008E30F401F500F60125277208A0007308B6
:1024A600A1007408A20008008312A201A301A101E1
:1024B60009230A168A11692A0330622A0530332352
:1024C6000A168A11A2070318A30A712A7708023A84
:1024D60003195F2A013A0319612A712A8316031325
:1024E6008617832AC930A10A21020318872A1A30BF
:1024F600F900F830F800F80B7E2AF90B7E2A000066
:1025060083120313861B752A861FC92AA20A03197A
:10251600A30AC92A0130D9220A168A11A400A501E4
:10252600A500A4018316A100831224088316A00027
:1025360083120130A401A501D9220A168A11A4002A
:10254600A5018316A004831225088316A104D12AA7
:102556000130D9220A168A11A400A501A500A401FA
:102566008316A300831224088316A2008312013067
:10257600A401A501D9220A168A11A400A501831671
:10258600A204831225088316A304D12A7708023AE7
:1025960003198D2A013A0319AB2AD12A7608840039
:1025A6000030D9228313800022080800F300F401CA
:1025B600831686178030F50083120617E22AE32A6F
:1025C600831203137508861BF404E92AEA2A831288
:1025D600031306130310F50C7508031DDF2A831673
:1025E60086137308031DFB2A831203138617FE2A1C
:1025F60083120313861306170330F200F20B012B26
:102606008312031306138617740808008316031330
:102616008613831286170613102B112B83120313AE
:102626000617152B162B8312031386131A2B8312E8
:10263600031306131E2B1F2B831203130617232BBC
:10264600242B831203138617282B831203130613D6
:102656002C2B2D2B831203138613312B322B0800C0
:10266600F3008316031386138030F500750873058F
:102676000319402B83128617422B831286130617E3
:102686000330F200F20B452B8312031306130310DB
:10269600F50C7508031D392B8617831686178312CA
:1026A6000617552B562B003083120313861B013059
:1026B600F4005D2B5E2B83120313061374080800C7
:1026C6008613831286170613F20183120313061765
:1026D6006C2B831203130613702B0930F20A720255
:1026E600031C682B09238316031386170800570853
:1026F600840083130008DB00840A0008DC00840AD7
:102706000008DD005408EA005508EB005608EC0006
:102716006630C2002430C300C230C400D730A800DF
:102726002330A9003C30AA005B08AB005C08AC0073
:102736005D08AD00AA260A168A11C4270A128A1154
:10274600BB250A168A114208DE004308DF0044084A
:10275600E0006A08A8006B08A9006C08B5270A16ED
:102766008A11AA260A168A112808E1002908E20019
:102776002A08E300E330A8002530A9003D30B5273C
:102786000A168A11AA260A168A112808C2002908DA
:10279600C3002A08C400E830A8003B30A900B630C0
:1027A600AA006108AB006208AC006308AD00AA2667
:1027B6000A168A11C4270A128A11BB250A168A111B
:1027C6004208E4004308E5004408E6008030C20100
:1027D600C300C030DB270A128A11BB250A168A11EC
:1027E6004208D8004308D9004408DA00D730C200AE
:1027F6002330C3003C30C400C630A800A730A9006F
:102806003830B5270A168A11AA260A168A11C4274D
:102816000A128A11BB250A168A114208E1004308EA
:10282600E2004408E3006108A8006208A900630802
:10283600AA00C830C201C300C130C4005E08C5008A
:102846005F08C6006008C7000A128A11BB250A166F
:102856008A114208AB004308AC004408AD00AA2622
:102866000A168A112808E4002908E5002A08E60065
:102876005808C2005908C3005A08DB270A128A11F1
:10288600BB250A168A114208E7004308E8004408F7
:10289600E900C630CE01CF004230D0006708D10033
:1028A6006808D2006908D3000A128A118B240A1616
:1028B6008A110318632CC630E701E8004230E900AC
:1028C6006708CE006808CF006908D000CD30D10077
:1028D600CC30D2003D30D3000A128A118B240A165E
:1028E6008A1103187C2CCD30E700CC30E8003D304F
:1028F600E900570884005E0883138000840A5F0895
:102906008000840A600880006708D4006808D50043
:102916006908D60008008312C100C11F5E2DC109D7
:10292600C10A4108803A123E031C012D9E270A1651
:102936008A116D260A168A117308A3007208A2006E
:1029460028260A168A11EB270A168A15DD270A1683
:102956008A110A168A1500200A168A11A8000A1674
:102966008A1500200A168A11A9000A168A1500205F
:102976000A168A11E3270A168A11A21BA303282620
:102986000A168A1175270A168A15EC270A168A115D
:102996000A168A1500200A168A11AB000A168A152D
:1029A60000200A168A11AC000A168A1500200A169B
:1029B6008A11AD00AA260A168A117D270A168A11DF
:1029C600F41BF5036D260A168A1167270A168A155F
:1029D60000200A168A11A8000A168A1500200A166F
:1029E6008A11A9000A168A1500200A168A11D32709
:1029F6000A168A11AA260A168A118A2F4108803ACF
:102A0600753E031C442DBD270A168A11F41BF503D7
:102A16006D260A168A1167270A168A1500200A16D5
:102A26008A11A8000A168A1500200A168A11A9001A
:102A36000A168A1500200A168A11CB270A168A1149
:102A4600A21BA30328260A168A1175270A168A15B9
:102A5600DD270A168A110A168A1500200A168A1117
:102A6600AB000A168A1500200A168A11AC000A164F
:102A76008A1500200A168A11AD00AA260A168A119E
:102A86008A2F0330F800410817270A168A15CF2720
:102A96000A168A110A168A1500200A168A11B70024
:102AA6000A168A1500200A168A11B8000A168A150F
:102AB6000020B90008004108803A123E031CCB2DC5
:102AC6009E270A168A116D260A168A117308A30014
:102AD6007208A20028260A168A11EB270A168A11FE
:102AE600F9270A168A1500200A168A11A8000A165E
:102AF6008A1500200A168A11A9000A168A150020CE
:102B06000A168A11E3270A168A11A21BA30328268E
:102B16000A168A1175276F3E840098300318013E05
:102B2600FF000A168A1500200A168A11AB000A163B
:102B36008A1500200A168A11AC000A168A1500208A
:102B46000A168A11AD00AA260A168A117D270A16C8
:102B56008A11F41BF5036D260A168A11720891274D
:102B66000A168A1500200A168A11A8000A168A155E
:102B760000200A168A11A9000A168A1500200A16CC
:102B86008A11D3270A168A11AA260A168A118A2FAB
:102B96004108803A753E031C0D2EBD270A168A1180
:102BA600F41BF5036D260A168A11720891270A1678
:102BB6008A1500200A168A11A8000A168A1500200E
:102BC6000A168A11A9000A168A1500200A168A1101
:102BD600CB270A168A11A21BA30328260A168A11D6
:102BE60075270A168A11F9270A168A1500200A1669
:102BF6008A11AB000A168A1500200A168A11AC0043
:102C06000A168A1500200A168A11AD00AA260A1687
:102C16008A118A2F0330F80041081727393E8400AD
:102C260098300318013EFF000A168A1500200A167E
:102C36008A11B7000A168A1500200A168A11B800EA
:102C46000A168A150020B9000800A501A11F322E18
:102C5600A009A109A00A0319A10AA501A50AA31F93
:102C66003B2EA209A309A20A0319A30A0130A5064D
:102C7600A601A701200821040319602EA401A40AB5
:102C8600A11B492E0310A00DA10D422E0310A60D67
:102C9600A70D21082302031D522E20082202031C21
:102CA6005C2E2008A2022108031CA303A3022614FB
:102CB6000310A10CA00CA40B492E25080319682E9D
:102CC600A609A709A60A0319A70A2708A100260824
:102CD600A0000800F701F51F772EF409F509F40A9C
:102CE6000319F50AF701F70AF31F7E2EF209F30915
:102CF600F20A0319F30A7208730403199D2EF601EA
:102D0600F60AF31B8A2E0310F20DF30D832E7308B9
:102D16007502031D902E72087402031C992E720808
:102D2600F4027308031CF503F5020310F30CF20C0E
:102D3600F60B8A2E77080319A52EF409F509F40A6D
:102D46000319F50A7508F3007408F200080028084C
:102D5600AE002908AF002A08B00003102F0D300D71
:102D6600B1003108031DBB2EA801A901AA01080064
:102D76002B08AE002C08AF002D08B00003102F0D55
:102D8600300DB6003608031DCC2EA801A901AA01F4
:102D9600080036087B3EB1072A08B6002D08B6069D
:102DA6008030B6050730A917AC17AD01B201B301E3
:102DB600B401B500281CE62EAA270A168A110318A4
:102DC6002D0A031DB4070310AA0CA90CA80C0310A6
:102DD600AB0DAC0DAD0DB50BDD2E0930B500281CC5
:102DE600FB2EAA270A168A1103182D0A031DB407FB
:102DF6000310AA0CA90CA80C0310B40CB30CB20C4B
:102E0600B50BF22E3208F2003308F3003408F40052
:102E16003108F5003608F60025277208A800730861
:102E2600A9007408AA000800A400A30178082418C1
:102E3600A3070310F80D0310A40C2408031D192F73
:102E460023080800750803192D2F740873047204EB
:102E5600031D362FF201F301F4010800F50A0310F1
:102E6600F40CF30CF20CFE3074050319452F312FC8
:102E7600F50AF20A0319F30A0319F40A0310F40C0B
:102E8600F30CF20CFF3074050319532F3B2F02305D
:102E96007502031C552FF5030310F20DF30DF40D07
:102EA600F31F4A2F751CF3130310F50C7508F90070
:102EB600F801F7017708F2047808F3047908F404B6
:102EC6007608031DF41708007208BA007308BB00E1
:102ED6003A083A073A07123E840098300318013E32
:102EE600FF0008002008BC002108BD003C083C0784
:102EF6003C0708002808BE002908BF002A08C000B1
:102F06000A30F200F3014108F400F5010800280830
:102F1600B7002908B8002A08B9000800BA007308E3
:102F2600BB003A083A073A07393E8400983003183E
:102F3600013EFF0008000A30A000A1014108F4008C
:102F4600F501F41BF5036430F200F30108002B08C9
:102F5600B2072C08031103182C0A031DB3072D080A
:102F660003110800AA006A08AB006B08AC006C08E5
:102F7600AD0008000A30F200F3014108F400F50143
:102F860008002808C5002908C6002A08C700080046
:102F9600AA000A30A000A1014108A200A30108006E
:102FA600AA003E08AB003F08AC004008AD00080090
:102FB600C4006408C5006508C6006608C7000800A6
:102FC600AA006430A000A1014108A200A3010800E4
:102FD6002008BA002108BB003A083A073A07080059
:102FE600831603138712831287120800543E840047
:102FF60098300318013EFF000800FF1B0A288313C0
:103006007F1883170008840A0319FF0A08007F083F
:103016007F398A000408840A0319FF0A82000034F3
:1030260080343F34CD34CC343D34D73423343C342F
:10303600123483343A34B734D1343834C63427346E
:103046003734383486343534C034D6343334CC341B
:103056002B343234703489343034E734DB342E3454
:10306600E5343C341E344234A2340D34003480340A
:103076003F340034203441340034C8344234003400
:103086007A34443440341C3446345034C3344734E0
:10309600243474344934973418344B34BC34BE3435
:1030A6004C346B346E344E34033415345034793426
:1030B600AD346034F33449347134013400340034AF
:1030C60000340A34003400340034643400340034EC
:1030D6000034E83403340034003410342734003428
:1030E6000034A034863401340034403442340F3482
:1030F600003480349634983400340034E134F534A6
:1031060005340034CA349A343B3441346934723459
:1031160020346D346F34693473347434203420347D
:1031260020342034203420342034003443344F34C7
:103136003234203469346E34203461346934723464
:1031460020342034203420342034203400344D34CC
:103156006534613473347534723469346E3467346B
:103166002E342E342E3420342034203420340034AF
:103176005334653474342034613469347234203401
:10318600743465346D3470342E3420342034203455
:103196000034533465347434203461346934723401
:1031A60020346D346F3469347334743420342034ED
:1031B60020340034533465347434203443344F346B
:1031C6003234203469346E342034613469347234D4
:1031D6002034203400344134693472342034743459
:1031E60065346D34703465347234613474347534D6
:1031F600723465342034003453346F3469346C349B
:103206002034743465346D3470346534723461340A
:10321600743475347234653400344734723465342A
:1032260073346B3461342034533448345434373473
:1032360031342134003420342534203420342034F1
:1032460020342034203420342034203420340034F8
:1032560020346434653467342034203420342034F8
:103266002034203420342034003420347034703438
:103276006D3420342034203420342034203420345B
:10328600203400340A344134443443342034453441
:10329600523452344F3452342E340A3400340A3401
:1032A60054344734533420344F344B342E340A3498
:1032B60000340A3453344834543420344F344B34B5
:1032C6002E340A3400340A344434533420344F3410
:1032D6004B342E340A340034203425342E34313421
:0432E6006634003416
:1036E60072308400000883120313A000840A0008C5
:1036F600A100840A0008A200840A0008A30003109F
:10370600220D230DAD002D08031D8E2BF201F301B2
:10371600F401F5010800753031240A168A150310E4
:10372600220D230DAC002C080319892B723084005E
:103736008030840A840A80047230840A84007530DA
:10374600840A840A840A800184008030840A840AF8
:1037560080047530840A84007F30840A840A840ACF
:103766008001A801A901AA01AB01AD02A0302C0776
:10377600A000AD022030AC0075300310A80DA90DD5
:10378600AA0DAB0D31240A168A1572308400000882
:10379600A400840A0008A500840A0008A600840A7A
:1037A6000008A70023082702031DE32B2208260290
:1037B600031DE32B21082502031DE32B2008240209
:1037C600031CFF2B753031240A168A1572308400CB
:1037D60020088002840A2108031C210F8002840A23
:1037E6002208031C220F8002840A2308031C230AD2
:1037F6008002033084022814723084000310800D86
:10380600840A800D840A800D840A800DAC0BBF2BC0
:10381600AD1F1A2C2D08803A9F3E031C892B0310DE
:10382600AB0CAA0CA90CA80CAD0F122C282C20301E
:103836002D020318892B2D080319282C0310A80D17
:10384600A90DAA0DAB0DAD031E2C2B08F5002A08F9
:10385600F4002908F3002808F20008008400000894
:10386600A000840A0008A100840A0008A200840AB5
:103876000008A30008008312E930BB01BC01B401B3
:10388600B501B601B701B000FF30B100CB30B200D0
:10389600FF30B3008B12B801CB240A168A15210813
:1038A600BA002008B90000303A02ED300319390297
:1038B600031C712C3108F300300843250A128A11C3
:1038C6009A250A168A1573088312BC007208BB0073
:1038D600FA30BB070318BC0A1930842C3308F300EE
:1038E600320843250A128A119A250A168A15730880
:1038F6008312BC007208BB00BC30BB070318BC0AAD
:103906003430BC073B08B4070318B50A3C08B507B2
:10391600B60A0319B70A3430AF00F130AE00AE0B69
:10392600922CAF0B922C972C831203130730B80AF4
:103936003802031C4F2C8B163708F3003608F200AA
:103946003508F5003408F4000A128A15F2260A161C
:103956008A157308BC007208BB0001303C025E3059
:1039660003193B020318BB2C5E30BB000130BC00C0
:1039760015303C027D3003193B02031CC62C7C30FB
:10398600BB001530BC003C08AD003B08AC0008008D
:103996008312A601A701A801A901A401A5011F146C
:1039A6000330A3009730A200A20BD72CA30BD72C71
:1039B600DC2C831203139F149F1CFE2C1A30A300C9
:1039C600F830A200A20BE52CA30BE52C0000831215
:1039D6000313A40A0319A50A003025029730031918
:1039E6002402031CDF2C4530F3009930F400122525
:1039F600A001A101080083161E088312A6041E0852
:103A0600A8042808AB00AA012608AA070318AB0ACF
:103A16002708AB072B08A1002A08A0000800F80118
:103A2600F90132250A168A1500200A168A15003A67
:103A36000319080032250A168A1500200A168A1567
:103A46002A250A168A15F80A0319F90A142DF2000E
:103A56008316981C2B2D720883129900080078088B
:103A66007307F6007408F5000318F50AF81BF5034A
:103A76007508F70083120313FF0076088400080018
:103A8600F2003A08F5003908F40008000A128A150F
:103A96001C270A168A150A128A1522200A168A1562
:103AA6000A168A116E210A168A150A128A155220DA
:103AB6000A168A1500308312A800A7002530A60032
:103AC6008030A5000A128A111C200A168A150A12CD
:103AD6008A1546200A168A150A128A1526200A16FB
:103AE6008A150A128A11DE270A168A150A128A11FF
:103AF600F1270A168A150A128A153C200A168A1513
:103B06000A128A152D200A168A1502308316031307
:103B1600DD000430DC00BA30DB00DB0B902DDC0B63
:103B2600902DDD0B902D0000BE3083120313ED00A7
:103B3600C1300A168A11AA210A168A150A168A118E
:103B4600AB200A168A154E088316A40083124F0866
:103B56008316A500831250088316A6008316031346
:103B66002D0803190F2EAD01FE2DBE308312ED0078
:103B7600C1300A168A11AA210A168A155C30F3008A
:103B86009930F4000A168A1512250A168A15092E86
:103B96002E080319092E0A168A153E240A168A15B6
:103BA6002D088316A80083122C088316A70052300E
:103BB600F3009930F4000A168A1512250A168A159A
:103BC600092E0A168A11AB200A168A154E08831684
:103BD600A40083124F088316A5008312500883168B
:103BE600A6006630F3009930F4000A168A151225ED
:103BF6000A168A15092E2F08003A0319B82D013A1C
:103C06000319CB2D033A0319E42D092E043083162C
:103C1600AF0A2F020318AF012B080319682EAB0158
:103C2600542E41088312DE00831642088312DF00F9
:103C3600831643088312E0000A128A15BF200A166B
:103C46008A15622E3E088312DE0083163F08831211
:103C5600DF00831640088312E0000A128A15F3205B
:103C66000A168A15622E28088312AC0083162708C6
:103C76008312AB000A128A1527210A168A15622EAC
:103C860024088312DE00831625088312DF008316BC
:103C960026088312E0000A128A158B200A168A1556
:103CA600622E2C08013A0319142E033A0319252E05
:103CB600013A0319362E073A0319432E622E83164C
:103CC6000530AC0A2C020318AC018312051E892E9E
:103CD60034308316DC00F130DB00DB0B702EDC0B9E
:103CE600702E752E83120313051E7C2E8316B001CB
:103CF600B00A8312051A7C2E34308316DC00F130AC
:103D0600DB00DB0B842EDC0B842E892E831603133B
:103D160030080319962EB0010C100A128A15552484
:103D26000A168A150C140A128A1566250A168A15A9
:103D36006400B12D8312C1006E304102031C232F93
:103D46000330F8000A30F7006430F2004108B32768
:103D56000A168A1598270A168A1117270A168A1527
:103D6600DD270A168A1500200A168A15A8000A16E3
:103D76008A1500200A168A15A9000A168A15002037
:103D86000A168A15AA000330F8006430F7004108C5
:103D960098270A168A1117270A168A15EC270A1673
:103DA6008A1500200A168A15AB000A168A15002005
:103DB6000A168A15AC000A168A1500200A168A15F4
:103DC600AD000A168A11AA260A168A15F3270A16BC
:103DD6008A15FA270A168A15B3270A168A1117278B
:103DE6000A168A15CF270A168A1500200A168A157A
:103DF600A8000A168A1500200A168A15A9000A16AE
:103E06008A1500200A168A15E4270A168A11AA2698
:103E16000A168A152808BB002908BC002A08BD0016
:103E26003F30A801A901AA003B08AB003C08AC0042
:103E36003D08AD000A168A11AA260A168A15D62F3B
:103E46000B304102031C732FFA270A168A15B32773
:103E56000A168A1117270A168A15CF270A168A15EF
:103E660000200A168A15A8000A168A1500200A16C6
:103E76008A15A9000A168A1500200A168A15AA00AC
:103E86000330F8000A30F700410898270A168A110D
:103E960017270A168A15DD270A168A1500200A161C
:103EA6008A15AB000A168A1500200A168A15AC0078
:103EB6000A168A1500200A168A15AD000A168A11F6
:103EC600AA260A168A15F3270A168A153F30A8016C
:103ED600A901E4270A168A11AA260A168A15D62FD8
:103EE6003F30A801A901AA000330F80041080A16CC
:103EF6008A1117270A168A15CF270A168A1500204F
:103F06000A168A15AB000A168A1500200A168A15A3
:103F1600AC000A168A1500200A168A15AD000A1684
:103F26008A11AA260A168A15D62FA000A20177089A
:103F36000319B12FA101A10AF71BA42F0310F70D36
:103F46009E2F0310A20D77082002031CAE2F7708C0
:103F5600A00222140310F70CA10BA42F22080800BC
:103F6600F4000830F500F6017408F300073003107A
:103F7600F30CFF3E0310031DBB2F760D7304F600F2
:103F86000310F40D72087602031CCB2F7208F6029A
:103F9600F50BB72F76080800123E840098300318F8
:103FA600013EFF0008002808B7002908B8002A08C3
:103FB600B90008002D3E840098300318013EFF002A
:103FC6000800AA003E08AB003F08AC004008AD0060
:103FD6000800483E840098300318013EFF000800A0
:103FE6002808BE002908BF002A08C00008000330C0
:0A3FF600F8000A30F200410808004C
:04400E00FAEFFFFFC7
:1042000000000000000000000000000000000000AE
:00000001FF
