:060000000A128A110C280F
:10000800FE00030EF0000A08F1000A168A151C2BE0
:100018000A128A110F28A030FA01FB01EE0183139E
:100028008400CE300A168A1508230A128A119030E5
:1000380083178400AE300A168A15082383010A162E
:100048008A15EB2D8316E5005630D10041270A1694
:100058008A1500200A128A118316E6006608031919
:10006800BC2D2530660603194028650884006608FB
:1000780083138000E50A2A28D401D501D201D301CF
:1000880096270A168A1500200A128A118D260A1246
:100098008A11031C89288316D401D5010A30F2007D
:1000A800F30183165508F5005408F40074260A1263
:1000B8008A1173088316D5007208D40096270A1689
:1000C8008A1500200A128A11D03ED900FF30031881
:1000D8000030DA0059088316D4070318D50A8312AA
:1000E8005A088316D5078312D40A0319D50A550866
:1000F800FF00540884000A168A1500200A128A1183
:100108008D260A128A11031852285508FF00540830
:1001180084000A168A1500200A128A112E3A031D35
:10012800D128831653178312D40A0319D50A8316C4
:10013800E301E40196270A168A1500200A128A119B
:100148008D260A128A11031CD82883166408F30026
:100158006308F2000A30F400F50174260A128A11C5
:1001680096270A168A1500200A128A117207D900E2
:100178000030031801307307DA005908D03E83169F
:10018800E30083125A080318013EFF3E8316E40079
:100198008312D40A0319D50A9E288316E301E401C1
:1001A8005316D8285315ED2841270A168A1500201A
:1001B8000A128A118316E600003A0319BC2D643A24
:1001C8000319ED28023A0319D6280F3A0319ED2826
:1001D8002A2883120730D901831653058312DA00BF
:1001E800590403196E2C8316531EFD280630E300AC
:1001F800E4015108840083130008E000840A000821
:10020800E100840A0008E2000330D1076008831285
:10021800CE00831661088312CF008316620883120A
:10022800D000D101D201D301C1250A128A110318C5
:100238002F2983166008F2006108F3006208F400B1
:100248009B260A128A117208E0007308E1007408FC
:10025800E2000330D2048316DE01DF016208610484
:1002680060040319D329E030840083138F270A120E
:100278008A11840A0008DB00840A0008DC000F30B9
:100288000310DC0CDB0CDA0CD90CFF3E031D4429EF
:100298005A088316DF00831259088316DE0082305D
:1002A800DF01DE07031CDF03FF30DE07031CDF036B
:1002B8000330F200F3015F08F5005E08F4007426CD
:1002C80073088316DF007208DE000A308312A0006C
:1002D800A10183165F088312A30083165E088312A8
:1002E800A2000A168A110E260A128A1121088316FC
:1002F800DF00831220088316DE00DF1F8729FF3006
:10030800DE07031CDF035E03FF3A0A168A117C240A
:100318000A128A114E270A128A1172278316560862
:100328008312AB00831657088312AC008316580853
:100338008312AD000A168A1190260A128A1128081B
:100348008316D600831229088316D70083122A0839
:100358008316D80014270A128A118030D101D200DE
:100368003F30D300C1250A128A110318C129FF3072
:100378008316DE07031CDF03D329831614270A120A
:100388008A112030D101D2004130D300C1250A1290
:100398008A11031CD3298316DE0A0319DF0A831680
:1003A8006408803AFF0080307F02031DDD290D308C
:1003B80063020318092A8316031363080A168A11AD
:1003C80094200A128A113708C2003808C300390875
:1003D800C400831660088312C5008316610883125F
:1003E800C600831662088312C7000A128A15EE2215
:1003F8000A128A1142088316E00083124308831602
:10040800E100831244088316E200831603135F0891
:10041800803AFF0080307F02031D142A0A305E02F2
:100428000318352A8316031362086104600403194C
:10043800702A5B270A128A119C270A128A1145081A
:10044800440443044204031D702A83165F08803A5B
:10045800FF0080307F02031D332A02305E02031C36
:10046800702A8316031314270A128A117030D100D8
:100478008930D2004030D300C1250A128A110318EE
:10048800472AF730482AF8308316DE07031CDF03B3
:100498005E080A168A117C240A128A114E27F20075
:1004A8006108F3006208F4005608F5005708F600E2
:1004B8005808F7000A168A15F1230A128A117508D6
:1004C8008316DD007408DC007308DB007208DA00AC
:1004D800E001E101E201B12A831603135B270A1246
:1004E8008A119C270A128A1133270A128A11831645
:1004F800DA005D088312A30083165C088312A20049
:1005080083165B088312A10083165A088312A00081
:10051800C0260A128A112008CE002108CF0022081E
:10052800D000831660088312D100831661088312F5
:10053800D200831662088312D300A3260A128A11F6
:100548004E088316E00083124F088316E1008312D9
:1005580050088316E200DE01DF01E601E60A6608BC
:100568008312D90001300310D90DFF3E0310031D7B
:10057800B82A20270A168A1500200A128A11DA00DA
:100588000A168A1500200A128A11DB000A168A1533
:1005980000200A128A11DC000A168A1500200A12A5
:1005A8008A11DD0083165D02031DEA2A83125C08A6
:1005B80083165C02031DEA2A83125B0883165B021A
:1005C800031DEA2A83125A0883165A02031CF12AC9
:1005D8000A30E60A6606031DB32A63086607831213
:1005E800D900831664080318640AE61BFF3E8312C9
:1005F800DA0083165E0883125907DB0083165F084A
:1006080003185F0A83125A07DC005B088316D402BA
:1006180083125C088316031CD503D502630864049F
:1006280003191A2BFF30D407031CD50352080339CA
:10063800031D312B5508803AFF0080307F02031DCF
:10064800272B01305402031C362B8316031365082D
:100658008400203083138000E50AFF30D407031C90
:10066800D5031E2B83160313520803390319742B61
:10067800650884002D30712B66088312D90001307B
:100688000310D90DFF3E0310031D452B20270A1622
:100698008A1500200A128A11F2000A168A1500200B
:1006A8000A128A11F3000A168A1500200A128A1102
:1006B800F4000A168A1500200A128A1128270A123D
:1006C8008A112B260A128A11E0260A128A11ED25B0
:1006D8000A128A1100270A128A1183138000E50A78
:1006E800E603660F402B5F08803AFF0080307F02E8
:1006F800031D802B01305E02031C8B2B8316031312
:1007080087270A128A11DE07031CDF03772B83165B
:1007180003136408803AFF0080307F02031D962B84
:1007280009306302031C9C2B0830831603139F2B8C
:10073800831603136308E6008312D900DA01D91B74
:10074800DA038316E30283125A088316031CE403B0
:10075800E40266080319B62B650884002E3083135B
:100768008000E50A66080A168A117C240A128A1192
:1007780037088316CE00831238088316CF008312F9
:1007880039088316D0004E088312AB0083164F0831
:100798008312AC00831650088312AD0083166008DC
:1007A80072270A168A1190260A128A112808C2008E
:1007B8002908C3002A08C4009C270A128A11332773
:1007C8000A128A115E2C66088312D90001300310C0
:1007D800D90DFF3E0310031DEC2B20270A168A159E
:1007E80000200A128A11F2000A168A1500200A123D
:1007F8008A11F3000A168A1500200A128A11F400D9
:100808000A168A1500200A128A1128270A128A1144
:100818002B260A128A11E0260A128A11ED250A12DD
:100828008A1100270A128A1183138000E50A6608D4
:100838008312D90001300310D90DFF3E0310031DA8
:10084800202C20270A168A1500200A128A11A500D2
:100858000A168A1500200A128A11A6000A168A1595
:1008680000200A128A11A7000A168A1500200A1207
:100878008A11A80083165D088312AC0083165C08F1
:100888008312AB0083165B088312AA0083165A08EA
:100898008312A900ED250A128A1128088316DD00A3
:1008A800831227088316DC00831226088316DB00D0
:1008B800831225088316DA00E603660FE72B630820
:1008C800640403192A2887270A128A11E307031CDC
:1008D800E403632C83165108840083138F270A12BC
:1008E8008A1159088316DA0083125A088316DB0026
:1008F8000030DB1BFF30DC00DD00D10AD10ADD1F30
:10090800922C0330D204DA09DB09DC09DD09DA0AA2
:100918000319DB0A0319DC0A0319DD0A63086404F6
:10092800031D9E2C5D085C045B045A040319E30A4A
:100938000319E40AE601E60A66088312D9000130C1
:100948000310D90DFF3E0310031DA52C20270A16FE
:100958008A1500200A128A11DA000A168A15002060
:100968000A128A11DB000A168A1500200A128A1157
:10097800DC000A168A1500200A128A11DD00831687
:100988005D02031DD72C83125C0883165C02031DCD
:10099800D72C83125B0883165B02031DD72C8312A6
:1009A8005A0883165A02031CDE2C0A30E60A660629
:1009B800031DA02C67270A128A116408803A831243
:1009C8005B02031DEB2C831663088312590203187C
:1009D800F22C831603136308E6000A2D7D270A12FA
:1009E8008A116408803A8312DB005A08803A5B0255
:1009F800031D012D59088316630203180A2D831657
:100A080003136608E300E401E31BE40383160313FE
:100A1800540855040319182D520803390319182DC1
:100A2800FF30D407031CD503531F372D6408803AC1
:100A38008312D90083165508803A83125902031D80
:100A4800282D8316540863020318332D83160313C5
:100A58006308D4026408031CD503D502372D831616
:100A68000313D401D50167270A128A115508803A61
:100A780083125B02031D442D831654088312590206
:100A88000318512D7D270A128A11D40283125A089D
:100A98008316031CD503D502552D83160313D401E1
:100AA800D501540855040319672D650884002030C2
:100AB80083138000FF30E50AD407031CD5035408CC
:100AC8005504031D592D520803390319712D650862
:100AD80084002D3083138000E50AFF30E307031CF0
:100AE800E403630F7A2D640A03192A280A30831253
:100AF800A500A601A701A801831663088312D900DF
:100B080001300310D90DFF3E0310031D862D202749
:100B18000A168A1500200A128A11F2000A168A1586
:100B280000200A128A11F3000A168A1500200A12F8
:100B38008A11F4000A168A1500200A128A11282739
:100B48000A128A112B260A128A117508AC00740839
:100B5800AB007308AA007208A900ED250A128A11D1
:100B68002508303E8316E6006508840066086E2D69
:100B780065088400831380010800D01FD02D4E081B
:100B8800003CCE004F08031C4F0F003CCF0050081C
:100B9800031C500F803CD000D31FDF2D5108003CB0
:100BA800D1005208031C520F003CD2005308031C0A
:100BB800530F803CD3008030D006D3065308500230
:100BC800031D080052084F02031D080051084E0279
:100BD800080028082704260425040319222EAD013D
:100BE800AD0AA81BFD2D0310A50DA60DA70DA80D78
:100BF800F42D28082C02031D0B2E27082B02031D99
:100C08000B2E26082A02031D0B2E25082902031C79
:100C18001C2E2508A9022608031C260FAA0227084D
:100C2800031C270FAB022808031C280FAC02031073
:100C3800A80CA70CA60CA50CAD0BFD2D2C08A80024
:100C48002B08A7002A08A6002908A5000800831277
:100C5800A001A101A201A301750874047304720420
:100C680003196B2EA401A40AF51B402E0310F20DE4
:100C7800F30DF40DF50D372E0310A00DA10DA20DE7
:100C8800A30D75087902031D532E74087802031DFD
:100C9800532E73087702031D532E72087602031C25
:100CA800652E7208F6027308031C730FF7027408A6
:100CB800031C740FF8027508031C750FF902201441
:100CC8000310F50CF40CF30CF20CA40B402E2308C3
:100CD800F5002208F4002108F3002008F2000800BB
:100CE800F601F701721C7E2E7408F6070318F70A3E
:100CF8007508F7070310F40DF50D0310F30CF20C4B
:100D080072087304031D762E7708F3007608F20044
:100D18000800F3003A30F20173020318992E3030BC
:100D28007302031C992EF201F20A720C080074086F
:100D380073047204031908008030F4060800500890
:100D48004F044E040319AA2E8030D0065108C20061
:100D58005208C3005308C4004E08C5004F08C60017
:100D68005008C7000A128A15EE224208CE0043082E
:100D7800CF004408D00008008E30A400FF302305BF
:100D88000319CD2E0310A30CA20CA10CA00CA40ACD
:100D9800C22E2008F2002108F3002208F4002408DB
:100DA800F500F6010A168A110B277208A0007308CD
:100DB800A1007408A200080075088316D9007408F9
:100DC800D8007308D7007208D6000A308312A5002D
:100DD800A601A701A801831659088312AC0083163F
:100DE80058088312AB00831657088312AA0083168B
:100DF80056088312A900080028088316D900831210
:100E080027088316D800831226088316D700831272
:100E180025088316D600650884005608303E080069
:100E280056088312CE00831657088312CF00831604
:100E380058088312D0000800590D603E840098308D
:100E48000318013EFF000800F50083165D08F9004D
:100E58005C08F8005B08F7005A08F6000800450827
:100E68008316DD00831244088316DC0083124308CE
:100E78008316DB0083124208080083125508DA0043
:100E88005408D900D40A0319D50A5A08FF0059088A
:100E98008400080037088316D600831238088316A2
:100EA800D700831239088316D80060080800600844
:100EB8008312C200831661088312C3008316620876
:100EC8008312C400080066088312D900DA01D91B0E
:100ED800DA035A08803ADB00831608008312A80058
:100EE800831661088312A900831662088312AA0078
:100EF80008008316031366088312D900DA01D91B88
:100F0800DA038316080065088400303083138000F4
:100F1800FF30E50A080000088312D900840A000897
:100F2800DA00080083125508FF00540884000800FE
:100F3800F7270A128A110310470D480DCE004E08F4
:100F4800031DAB2FC201C301C401C5010800F72767
:100F58000A128A1117300310C80CC70CC60CFF3EC2
:100F6800031DAF2F4608C900C317C4014208CA00B1
:100F78004308CB004408CC008E30CD01CE02CE1FF2
:100F8800D22F4E08803A8F3E031CA62F0310CD0C9B
:100F9800CC0CCB0CCA0CCE0FCA2FE02F18304E0247
:100FA8000318A62F4E080319E02F0310CA0DCB0D06
:100FB800CC0DCD0DCE03D62F49080319EE2FCA0943
:100FC800CB09CC09CD09CA0A0319CB0A0319CC0AE3
:100FD8000319CD0A4D08C5004C08C4004B08C300CE
:100FE8004A08C20008004208C6004308C70044086F
:040FF800C800080025
:1010060083160313051403170814831203139F0191
:1010160083169F170C130800EE018316C030B30128
:10102600B701B401B801B101B001AF01AF0AA70120
:10103600A8004130A900B430AA01AB004230AC0090
:10104600E830FA000330FB00B601B501B201B20A7E
:10105600AD01AE0108000130F601F60AE8260A12D3
:101066008A159930F7009830F8002F250A128A154C
:10107600831632080319562883122C08A5002B085C
:10108600A4000230A600A701A70A34260A128A1570
:101096000530F6000230E8260A128A153830F700C5
:1010A6009930F8002F2D0230F601F60AE8260A12CA
:1010B6008A15AA30F7009830F8002F2D57088400BB
:1010C60083130008DB00840A0008DC00840A000899
:1010D600DD005408EA005508EB005608EC006630BF
:1010E600C2002430C300C230C400D730A800233069
:1010F600A9003C30AA005B08AB005C08AC005D08A8
:10110600AD000A168A1190260A128A15F1270A12CC
:101116008A15EE220A128A154208DE004308DF000D
:101126004408E0006A08A8006B08A9006C08E927D3
:101136000A168A1190260A128A152808E10029083B
:10114600E2002A08E300E330A8002530A9003D307C
:10115600E9270A168A1190260A128A152808C2005B
:101166002908C3002A08C400E830A8003B30A900BB
:10117600B630AA006108AB006208AC006308AD0097
:101186000A168A1190260A128A15F1270A128A155A
:10119600EE220A128A154208E4004308E5004408D4
:1011A600E6008030C201C300C030F8270A128A1553
:1011B600EE220A128A154208D8004308D9004408CC
:1011C600DA00D730C2002330C3003C30C400C6303A
:1011D600A800A730A9003830E9270A168A119026F8
:1011E6000A128A15F1270A128A15EE220A128A15A0
:1011F6004208E1004308E2004408E3006108A80051
:101206006208A9006308AA00C830C201C300C13041
:10121600C4005E08C5005F08C6006008C700EE226D
:101226004208AB004308AC004408AD000A168A1118
:1012360090260A128A152808E4002908E5002A08DB
:10124600E6005808C2005908C3005A08F8270A12CF
:101256008A15EE224208E7004308E8004408E90040
:10126600C630CE01CF004230D0006708D1006808F2
:10127600D2006908D3000A128A11C1250A128A15FA
:1012860003184A29C630E701E8004230E90067083A
:10129600CE006808CF006908D000CD30D100CC3030
:1012A600D2003D30D3000A128A11C1250A128A15CE
:1012B60003186329CD30E700CC30E8003D30E90063
:1012C600570884005E0883138000840A5F08800044
:1012D600840A600880006708D4006808D500690899
:1012E600D60008004530D4009930D50083162A0868
:1012F6008312D60083162B088312D70083162C0878
:101306008312D800B9300A128A1126200A128A15C9
:101316000130F601F60AE8260A128A15CC30F700E3
:101326009830F8002F250A128A150230F601F60ABF
:10133600E8260A128A15B930F700F8012F250A1295
:101346008A150630F6000230E8260A128A1522307F
:10135600F7009930F8002F250A128A1583163508EA
:10136600031D08008312051DD4293430DF00F13037
:10137600DE00DE0BBC29DF0BBC29C1298312031357
:10138600051DC8298316B701B70A83120519C8298E
:101396003430DF00F130DE00DE0BCF29DF0BCF2942
:1013A600D42983120313851DF4293430DF00F1306C
:1013B600DE00DE0BDC29DF0BDC29E12983120313B7
:1013C600851DE8298316B401B40A83128519E82914
:1013D6003430DF00F130DE00DE0BEF29DF0BEF29C2
:1013E600F42983160313370803195B2A8312803006
:1013F600C201C3003F30C40083162A088312C50009
:1014060083162B088312C60083162C088312C70086
:10141600EE2242088316AA00831243088316AB0005
:10142600831244088316AC008312C630CE01CF0067
:101436004230D00083162A088312D10083162B0867
:101446008312D20083162C088312D3000A128A1143
:10145600C1250A128A150318362A8316C630AA0130
:10146600AB004230AC0083164530B7018312D4007E
:101476009930D50083162A088312D60083162B08C6
:101486008312D70083162C088312D800B9300A12AB
:101496008A1126200A128A150230F601F60AE82673
:1014A6000A128A15B930F700F8012F250A128A1593
:1014B600831634080319C42A83128030CE01CF0064
:1014C6003F30D00083162A088312D10083162B08DA
:1014D6008312D20083162C088312D3000A128A11B3
:1014E600A3260A128A154E088316AA0083124F08ED
:1014F6008316AB00831250088316AC002A088312A9
:10150600CE0083162B088312CF0083162C08831275
:10151600D000F030D101D2004130D3000A128A1136
:10152600C1250A128A1503189E2A8316F030AA01CD
:10153600AB004130AC0083164530B4018312D400B1
:101546009930D50083162A088312D60083162B08F5
:101556008312D70083162C088312D800B9300A12DA
:101566008A1126200A128A150230F601F60AE826A2
:101576000A128A15B930F7000030F8002F250A1232
:101586008A158312851CE12A3430DF00F130DE0033
:10159600DE0BCB2ADF0BCB2AD02A83120313851C42
:1015A600D62AEE01EE0A8518D62A3430DF00F1304D
:1015B600DE00DE0BDC2ADF0BDC2AE12A83120313B2
:1015C6006E080319B129EE018316B601B60A47253E
:1015D6000A128A15B1294208C8004308C9004408FE
:1015E600CA000310490D4A0DCD004508C80046083B
:1015F600C9004708CA000310490D4A0DCC004D0822
:101606000319112B4C084D024C080318192BC8005E
:101616004D08C80219304802031C182B4508C200A1
:101626004608C3004708C40008004C080319080010
:101636004D084C020318272B4D08C8004C08C80259
:1016460019304802031808000630CB00C41BCB171C
:10165600C71B4B17C317C401C617C7014C084D0259
:1016660003184E2B0310C50DC60DC70DCC034C0831
:101676004D060319492BCB034B0807390319492B90
:10168600352B0310C40CC30CC20CCD0A4D084C06F6
:1016960003196A2B442B4D084C0203186A2B0310BE
:1016A600C20DC30DC40DCD034C084D060319662BA0
:1016B600CB034B0807390319662B522B0310C70CB3
:1016C600C60CC50CCC0A4D084C06031D612BCB1F5E
:1016D600752BFF30C206C306C406C20A0319C30A25
:1016E6000319C40A4B1F802BFF30C506C606C70662
:1016F600C50A0319C60A0319C70ACB014208C5075A
:10170600430803110318430A031DC60744080311BF
:101716000318440A031DC707C71F9C2BFF30C506C5
:10172600C606C706C50A0319C60A0319C70ACB01A6
:10173600CB0A4508F2004608F3004708F4004D08B6
:10174600F5004B08F6000A168A110B277208C2002C
:101756007308C3007408C400080045308312D4001F
:101766009930D500831627088312D60083162808D9
:101776008312D700831629088312D800C3300A12B1
:101786008A1126200A128A150130F601F60AE82681
:101796000A128A15BB30F7009830F8002F250A1276
:1017A6008A150230F601F60AE8260A128A15C330AF
:1017B600F700F8012F250A128A150630F6000230C6
:1017C600E8260A128A152130F7009930F8002F25ED
:1017D6000A128A1583163608031D292D8312051D44
:1017E600102C3430E100F130E000E00BF82BE10B77
:1017F600F82BFD2B83120313051D042C8316B7014A
:10180600B70A83120519042C3430E100F130E000E8
:10181600E00B0B2CE10B0B2C102C83120313851DF4
:10182600302C3430E100F130E000E00B182CE10BF5
:10183600182C1D2C83120313851D242C8316B4012A
:10184600B40A83128519242C3430E100F130E0000B
:10185600E00B2B2CE10B2B2C302C831603133708B3
:101866000319982CCD308312C200CC30C3003D3012
:10187600C400831627088312C5008316280883121E
:10188600C600831629088312C700EE224208831673
:10189600A700831243088316A80083124408831600
:1018A600A90083122030CE01CF004230D00083162B
:1018B60027088312D100831628088312D2008316C4
:1018C60029088312D3000A128A11C1250A128A1521
:1018D6000318732C83162030A701A8004230A900F4
:1018E60083164530B7018312D4009930D50083168C
:1018F60027088312D600831628088312D70083167A
:1019060029088312D800C3300A128A1126200A1227
:101916008A150230F601F60AE8260A128A15C3303D
:10192600F700F8012F250A128A15831634080319C1
:10193600022DCD308312CE00CC30CF003D30D0000A
:10194600831627088312D100831628088312D20033
:10195600831629088312D3000A128A11A3260A12B3
:101966008A154E088316A70083124F088316A8000F
:10197600831250088316A90027088312CE00831607
:1019860028088312CF00831629088312D0007030EE
:10199600D101D2004130D3000A128A11C1250A12A0
:1019A6008A150318DC2C83167030A701A800413075
:1019B600A90083164530B4018312D4009930D500AE
:1019C600831627088312D600831628088312D700A9
:1019D600831629088312D800C3300A128A112620DA
:1019E6000A128A150230F601F60AE8260A128A1544
:1019F600C330F7000030F8002F250A128A1583122B
:101A0600851C1F2D3430E100F130E000E00B092D7C
:101A1600E10B092D0E2D83120313851C142DEE01E7
:101A2600EE0A8518142D3430E100F130E000E00BA9
:101A36001A2DE10B1A2D1F2D831203136E0803199D
:101A4600ED2BEE0175210A128A15ED2B8312EE019C
:101A56008316B601B5010800A301A401D8270A160A
:101A66008A1500200A128A15003A03190800D82799
:101A76000A168A1500200A128A1510270A128A15D4
:101A8600A30A0319A40A312D0130F601F60AE82645
:101A96000A128A15DD30F7009830F8002F250A1251
:101AA6008A150230F601F60AE8260A128A1520304F
:101AB600F7009930F8002F250A128A150230F60130
:101AC600F60AE8260A128A157B08A5007A08A400F9
:101AD6000230A600A701A70A34260A128A15063084
:101AE600F6000230E8260A128A152230F7009930ED
:101AF600F8002F250A128A1583126E08031D0800A6
:101B0600051DA12D3430AC00F130AB00AB0B892D97
:101B1600AC0B892D8E2D83120313051D952D83166F
:101B2600B701B70A83120519952D3430AC00F13090
:101B3600AB00AB0B9C2DAC0B9C2DA12D831203137C
:101B4600851DC12D3430AC00F130AB00AB0BA92D97
:101B5600AC0BA92DAE2D83120313851DB52D83164F
:101B6600B401B40A83128519B52D3430AC00F130B6
:101B7600AB00AB0BBC2DAC0BBC2DC12D83160313D8
:101B860037080319E72D6430FA070318FB0A1330E8
:101B96007B02893003197A02031CD52D8830FA009E
:101BA6001330FB000230B701F601F60AE8260A12E6
:101BB6008A157B08A5007A08A4000230A600A701B2
:101BC600A70A34260A128A158316340803190C2E1E
:101BD6006430FA02031CFB0301307B022C3003192C
:101BE6007A020318FA2D2C30FA000130FB0002307D
:101BF600B401F601F60AE8260A128A157B08A50042
:101C06007A08A4000230A600A701A70A34260A1201
:101C16008A158312851C292E3430AC00F130AB00B6
:101C2600AB0B132EAC0B132E182E83120313851C2D
:101C36001E2EEE01EE0A85181E2E3430AC00F13051
:101C4600AB00AB0B242EAC0B242E292E83120313D0
:101C56006E0803197F2DEE01EE0A8316B501B50A4B
:101C66007F2DE830A901A801F2000330F300250812
:101C7600F5002408F40035270A128A157208AA000E
:101C86002A08031D502EA901A90A2708F6002608CE
:101C9600E8260A128A152030582E0230F601F60A76
:101CA600E8260A128A152A08303E10272A08F2006A
:101CB600E830F301F4000330F5000A128A117426A5
:101CC6000A128A1572088312A4027308031CA5035C
:101CD600A5026430F200F3012508F5002408F4009B
:101CE60035270A128A157208AA002A08031D892EAA
:101CF60029080319892EA801A80A2708013EF6001B
:101D06002608E8260A128A152030902E0230F600A0
:101D1600E8260A128A152A08303E10272A08F200F9
:101D26006430F301F400F5010A128A1174260A12CE
:101D36008A1572088312A4027308031CA503A50260
:101D46000A30F200F3012508F5002408F4003527CF
:101D56000A128A157208AA002A08031DC12E29082C
:101D66000319C12E28080319C12E2708023EF600C2
:101D76002608E8260A128A152030C92E0330F600F6
:101D86000230E8260A128A152A08303E10272A0849
:101D9600F2000A30F301F400F5010A128A117426E2
:101DA6000A128A1572088312A4027308031CA5037B
:101DB600A5022408AA002708033EF6002608E826FE
:101DC6000A128A152A08303E102F8312A000200B13
:101DD600FC2E76087F3EA300230E0F39A1002308B0
:101DE600A2000F30A2052108AA270A128A15220886
:101DF600AA2F02302006031D08007608BF3EA30066
:101E0600230E0F39A1002308A2000F30A2052108D6
:101E1600AA270A128A152208AA2FF600F4000F3004
:101E2600F4057608F500F030F5058616750E0F39BF
:101E3600C0270A128A1506161A30F300F30B212F53
:101E460000008312031306127408C0270A128A15AB
:101E560006161A30F300F30B2E2F0000831203131D
:101E660006120800F601F7017208730403195A2FC7
:101E7600F801F80AF31B432F0310F20DF30D3C2F64
:101E86000310F60DF70D73087502031D4C2F72082B
:101E96007402031C562F7208F4027308031CF50320
:101EA600F50276140310F30CF20CF80B432F7708A7
:101EB600F3007608F200080083168117C030031776
:101EC6008905031386010030C0270A128A153430AB
:101ED600F700F130F600F60B6E2FF70B6E2F732F0F
:101EE6000330AA270A128A150D30F700FB30F600D8
:101EF600F60B7B2FF70B7B2F802F0330AA270A12B6
:101F06008A151D30F7009130F600F60B882FF70B77
:101F1600882F0330AA270A128A150230AA270A1226
:101F26008A150230AA270A128A150830AA270A1229
:101F36008A150030AA270A128A150C30AA270A1217
:101F46008A150030AA270A128A150630AA2FF5002C
:101F56008312031386127508C0270A128A150616FD
:101F66000B30F4006230F300F30BB72FF40BB72FEE
:101F760000008312031306120800F200721CC62F1B
:101F860083120614C82F83120610F21CCC2F861457
:101F9600CD2F8610721DD12F0615D22F0611F21DD8
:101FA600D62F861508008611080023087707A1009A
:101FB6007808A0000318A00AA31BA003831203132A
:101FC6002008A200FF00210884000800AA006A0871
:101FD600AB006B08AC006C08AD0008002808C50013
:101FE6002908C6002A08C7000800C4006408C500FE
:0A1FF6006508C6006608C700080071
:1020020081128111073081048B17831281018B1693
:102012000800831607138713C0308B048C168312B3
:102022002808031D080001302702031D1E28C230A4
:102032002602031D1E280130250203180800280865
:10204200031D2E282708031D2E2801302602031DFA
:102052002C282C302502031C080080302506253050
:102062000319260627042804031D4D2885200A1279
:102072008A112B260A168A116F200A128A112B2620
:102082000A168A117308AF007208AE00FF30AE075D
:102092000318AF0AAF075B2885200A128A112B2684
:1020A2000A168A116F200A128A112B267308AF00B2
:1020B2007208AE00831618150317871583120313CF
:1020C2002E088316990083122F0883169A0018127D
:1020D2008312981718168316981608007508AC0014
:1020E2007408AB007308AA007208A9000430F20059
:1020F200F301F401F5012C08F9002B08F8002A0875
:10210200F7002908F60008002808F5002708F4005F
:102112002608F3002508F2007A30F901F80012309F
:10212200F700F60108008312C1006E304102031C61
:1021320016290330F8000A30F7006430F200410833
:10214200A0210A168A1185210A168A11FD260A166D
:102152008A11A9270A168A1500200A168A11A800D0
:102162000A168A1500200A168A11A9000A168A156B
:1021720000200A168A11AA000330F8006430F70022
:10218200410885210A168A11FD260A168A11DF27BF
:102192000A168A1500200A168A11AB000A168A1539
:1021A20000200A168A11AC000A168A1500200A16A7
:1021B2008A11AD0090260A168A11EC270A168A1196
:1021C200FA270A168A11A0210A168A11FD260A1672
:1021D2008A1184270A168A1500200A168A11A80075
:1021E2000A168A1500200A168A11A9000A168A15EB
:1021F20000200A168A11BF270A168A1190260A168B
:102202008A112808BB002908BC002A08BD003F30FB
:10221200A801A901AA003B08AB003C08AC003D089C
:10222200AD0090260A168A11A22F0B304102031C20
:102232006429FA270A168A11A0210A168A11FD2694
:102242000A168A1184270A168A1500200A168A118C
:10225200A8000A168A1500200A168A11A9000A1671
:102262008A1500200A168A11AA000330F8000A30E3
:10227200F700410885210A168A11FD260A168A11DD
:10228200A9270A168A1500200A168A11AB000A1617
:102292008A1500200A168A11AC000A168A15002037
:1022A2000A168A11AD0090260A168A11EC270A1620
:1022B2008A113F30A801A901BF270A168A11902668
:1022C2000A168A11A22F3F30A801A901AA000330E1
:1022D200F8004108FD260A168A1184270A168A1573
:1022E20000200A168A11AB000A168A1500200A1667
:1022F2008A11AC000A168A1500200A168A11AD004E
:1023020090260A168A11A22FA000A20177080319AB
:102312009E29A101A10AF71B91290310F70D8B2910
:102322000310A20D77082002031C9B297708A00244
:1023320022140310F70CA10B912922080800F400C3
:102342000830F500F6017408F30007300310F30CAF
:10235200FF3E0310031DA829760D7304F600031037
:10236200F40D72087602031CB8297208F602F50B06
:10237200A4297608080081220A168A11003A031D50
:10238200212ACC302A220A168A1144302A220A161D
:102392008A11083083120313D3009D30D2000B3010
:1023A200D100D10BD229D20BD229D30BD229D929D0
:1023B20081220A168A11CC302A220A168A11BE30CC
:1023C2002A220A168A115A220A168A118312031322
:1023D200D700D8015A220A168A1183120313D90090
:1023E200DA01DC00DB015708DB070318DC0A5808B6
:1023F200DC079A30C2009930C300BE30C40080307E
:10240200A801A9003D30AA005C08A1005B08A00059
:102412005A230A168A112008AB002108AC002208B0
:10242200AD0090260A128A15F1270A168A110A129D
:102432008A15EE224208D4004308D5004408D6008B
:10244200831203135408CE005508CF005608D0005B
:102452000800F300831603138716F4010130F2001B
:10246200740A352A0310F20DFF3E031D332A720847
:1024720073050319492AE6270A168A11402A831688
:10248200031387162730F200F20B452A482A542AF2
:10249200E6270A168A112730F200F20B4E2A512A39
:1024A2008316031387160830F40A7402031808000F
:1024B2002F2AF301831603138716F401E6270A165F
:1024C2008A11632A642A8316031387168312871ECE
:1024D200752A0130F200740A702A0310F20DFF3ED1
:1024E200031D6E2A7208F3042730F200F20B772ADA
:1024F2007A2A0830F40A7402031C5F2A730808005F
:10250200E6270A168A118930F200872A882AF20BF6
:10251200862A8316031387162730F200F20B8F2ABE
:10252200922A83120313871A9D2A8930F200992A6C
:102532009A2AF20B982A00348930F200A02AA12AA2
:10254200F20B9F2A0134F7000B240A168A11073076
:102552004C240A168A11F800770884000130DB2324
:102562000A168A1183138000760884000030DB2368
:1025720083138000780808008316D200D730D30175
:10258200F6000330F700D4306A230A168A11831644
:10259200D307D730F6000230F700D8306A230A1684
:1025A2008A118316D307D730F600D130A4220A1637
:1025B2008A118316D30753080319002B35240130DF
:1025C200F601F60A0A128A15E8260A168A1110304E
:1025D200F7009930F8000A128A152F250A168A1177
:1025E2000B308316D0002630CF006630CE00CE0BE3
:1025F200F82ACF0BF82AD00BF82AFF2A0800230862
:102602008312A100831622088312A0005A230A16FD
:102612008A1120088316D400831221088316D5005C
:10262200831222088316D60021088312A100831682
:1026320020088312A0005A2320088316D800831290
:1026420021088316D900831222088316DA0054085F
:102652008312D400831655088312D50083165608B8
:102662008312D600D830D7000A128A156120540886
:102672008316D400831255088316D5008312560898
:102682008316D6005208840058088000840A59082C
:102692008000840A5A08800083126D088400831621
:1026A20054088000840A55088000840A5608800075
:1026B20008002008F2002108F3008E30F401F50032
:1026C200F6010B277208A0007308A1007408A2008B
:1026D20008008312A101A2010B240A168A117B2B86
:1026E2000330742B05304C240A168A11A1070318F3
:1026F200A20A832B7708023A0319712B013A0319B4
:10270200732B832B8316031386178312861B862B48
:10271200861FCB2BA10A0319A20ACB2B0130DB2384
:102722000A168A11A300A401A400A3018316A10022
:10273200831223088316A00083120130A301A4018F
:10274200DB230A168A11A300A4018316A0048312B4
:1027520024088316A104D32B0130DB230A168A1125
:10276200A300A401A400A3018316A30083122308DB
:102772008316A20083120130A301A401DB230A16EF
:102782008A11A300A4018316A204831224088316CB
:10279200A304D32B7708023A03198F2B013A0319AA
:1027A200AD2BD32B760884000030DB23831380000B
:1027B20021080800F300F401831686178030F50023
:1027C20083120617E42BE52B831203137508861B6D
:1027D200F404EB2BEC2B8312031306130310F50CFA
:1027E2007508031DE12B831686137308031DFD2B49
:1027F200831203138617002C831203138613061702
:102802000330F200F20B032C831203130613861714
:10281200740808008316031386138312861706139F
:10282200122C132C831203130617172C182C831245
:10283200031386131C2C831203130613202C212C42
:10284200831203130617252C262C831203138617D3
:102852002A2C8312031306132E2C2F2C83120313FC
:102862008613332C342C0800861383128617061322
:10287200F2018312031306173E2C8312031306136D
:10288200422C0930F20A7202031C3A2C0B248316E2
:10289200031386170800F300831603138613803090
:1028A200F500750873050319592C831286175B2CE2
:1028B2008312861306170330F200F20B5E2C83128A
:1028C200031306130310F50C7508031D522C86170B
:1028D20083168617831206176E2C6F2C0030831214
:1028E2000313861B0130F400762C772C831203131A
:1028F2000613740808008312C100C11F442DC109C8
:10290200C10A4108803A123E031CEB2C8B270A169F
:102912008A1153260A168A117308A3007208A200AC
:102922000E260A168A11CF270A168A11A9270A1615
:102932008A1500200A168A11A8000A168A15002094
:102942000A168A11A9000A168A1500200A168A1187
:10295200B7270A168A11A21BA3030E260A168A118A
:102962006F270A168A11DF270A168A1500200A160F
:102972008A11AB000A168A1500200A168A11AC00C9
:102982000A168A1500200A168A11AD0090260A1628
:102992008A1177270A168A11F41BF50353260A16A1
:1029A2008A114D270A168A1500200A168A11A800D4
:1029B2000A168A1500200A168A11A9000A168A1513
:1029C20000200A168A11C7270A168A1190260A16AB
:1029D2008A115B2F4108803A753E031C2C2DB027CB
:1029E2000A168A11F41BF50353260A168A114D277B
:1029F2000A168A1500200A168A11A8000A168A15D4
:102A020000200A168A11A9000A168A1500200A1641
:102A12008A11D7270A168A11A21BA3030E260A16A9
:102A22008A116F270A168A11A9270A168A15002009
:102A32000A168A11AB000A168A1500200A168A1194
:102A4200AC000A168A1500200A168A11AD009026DB
:102A52000A168A115B2F0330F8004108FD260A1678
:102A62008A1184270A168A1500200A168A11B700CD
:102A72000A168A1500200A168A11B8000A168A1543
:102A82000020B90008004108803A123E031CB12D13
:102A92008B270A168A1153260A168A117308A30075
:102AA2007208A2000E260A168A11CF270A168A1168
:102AB200F3270A168A1500200A168A11A8000A1698
:102AC2008A1500200A168A11A9000A168A15002002
:102AD2000A168A11B7270A168A11A21BA3030E2609
:102AE2000A168A116F276F3E840098300318013E40
:102AF200FF000A168A1500200A168A11AB000A1670
:102B02008A1500200A168A11AC000A168A150020BE
:102B12000A168A11AD0090260A168A1177270A161C
:102B22008A11F41BF50353260A168A1172086227CA
:102B32000A168A1500200A168A11A8000A168A1592
:102B420000200A168A11A9000A168A1500200A1600
:102B52008A11C7270A168A1190260A168A115B2F34
:102B62004108803A753E031CF32DB0270A168A11DC
:102B7200F41BF50353260A168A11720862270A16F5
:102B82008A1500200A168A11A8000A168A15002042
:102B92000A168A11A9000A168A1500200A168A1135
:102BA200D7270A168A11A21BA3030E260A168A1118
:102BB2006F270A168A11F3270A168A1500200A16A9
:102BC2008A11AB000A168A1500200A168A11AC0077
:102BD2000A168A1500200A168A11AD0090260A16D6
:102BE2008A115B2F0330F8004108FD26393E84002C
:102BF20098300318013EFF000A168A1500200A16B3
:102C02008A11B7000A168A1500200A168A11B8001E
:102C12000A168A150020B9000800A501A11F182E66
:102C2200A009A109A00A0319A10AA501A50AA31FC7
:102C3200212EA209A309A20A0319A30A0130A5069B
:102C4200A601A701200821040319462EA401A40A03
:102C5200A11B2F2E0310A00DA10D282E0310A60DCF
:102C6200A70D21082302031D382E20082202031C6F
:102C7200422E2008A2022108031CA303A302261449
:102C82000310A10CA00CA40B2F2E250803194E2E05
:102C9200A609A709A60A0319A70A2708A100260858
:102CA200A0000800F701F51F5D2EF409F509F40AEA
:102CB2000319F50AF701F70AF31F642EF209F30963
:102CC200F20A0319F30A720873040319832EF60138
:102CD200F60AF31B702E0310F20DF30D692E730822
:102CE2007502031D762E72087402031C7F2E720871
:102CF200F4027308031CF503F5020310F30CF20C43
:102D0200F60B702E770803198B2EF409F509F40AD5
:102D12000319F50A7508F3007408F2000800280880
:102D2200AE002908AF002A08B00003102F0D300DA5
:102D3200B1003108031DA12EA801A901AA010800B2
:102D42002B08AE002C08AF002D08B00003102F0D89
:102D5200300DB6003608031DB22EA801A901AA0142
:102D6200080036087B3EB1072A08B6002D08B606D1
:102D72008030B6050730A917AC17AD01B201B30117
:102D8200B401B500281CCC2E97270A168A11031805
:102D92002D0A031DB4070310AA0CA90CA80C0310DA
:102DA200AB0DAC0DAD0DB50BC32E0930B500281C13
:102DB200E12E97270A168A1103182D0A031DB4075C
:102DC2000310AA0CA90CA80C0310B40CB30CB20C7F
:102DD200B50BD82E3208F2003308F3003408F400A1
:102DE2003108F5003608F6000B277208A8007308B0
:102DF200A9007408AA000800A400A30178082418F6
:102E0200A3070310F80D0310A40C2408031DFF2EC2
:102E12002308080075080319132F74087304720439
:102E2200031D1C2FF201F301F4010800F50A03103F
:102E3200F40CF30CF20CFE30740503192B2F172F30
:102E4200F50AF20A0319F30A0319F40A0310F40C3F
:102E5200F30CF20CFF3074050319392F212F0230C5
:102E62007502031C3B2FF5030310F20DF30DF40D55
:102E7200F31F302F751CF3130310F50C7508F900BE
:102E8200F801F7017708F2047808F3047908F404EA
:102E92007608031DF41708007208BA007308BB0015
:102EA2003A083A073A07123E840098300318013E66
:102EB200FF0008002808B7002908B8002A08B9004E
:102EC2000800BA007308BB003A083A073A07393ECD
:102ED200840098300318013EFF0008002008BC005F
:102EE2002108BD003C083C073C0708002808BE003A
:102EF2002908BF002A08C0000A30F200F301410885
:102F0200F400F5010800123E840098300318013ED7
:102F1200FF0008000A30A000A1014108F400F501F9
:102F2200F41BF5036430F200F30108002B08B2072A
:102F32002C08031103182C0A031DB3072D080311D3
:102F420008002808B7002908B8002A08B9000800B4
:102F52002D3E840098300318013EFF0008000A301D
:102F6200F200F3014108F400F5010800AA00643000
:102F7200A000A1014108A200A3010800AA003E0886
:102F8200AB003F08AC004008AD000800AA003E08B4
:102F9200AB003F08AC004008AD0008002008BA00B2
:102FA2002108BB003A083A073A070800AA000A308B
:102FB200A000A1014108A200A3010800483E84002C
:102FC20098300318013EFF0008008316031387128E
:102FD2008312871208002808BE002908BF002A08A9
:102FE200C0000800543E840098300318013EFF00E0
:102FF20008000330F8000A30F20041080800FF1B05
:103002000A2883137F1883170008840A0319FF0A0A
:1030120008007F087F398A000408840A0319FF0A1E
:103022008200003480343F34CD34CC343D34D73444
:1030320023343C34123483343A34B734D134383400
:10304200C63427343734383486343534C034D63431
:103052003334CC342B343234703489343034E73462
:10306200DB342E34E5343C341E344234A2340D3485
:10307200003480343F340034203441340034C834C6
:10308200423400347A34443440341C3446345034AC
:10309200C3344734243474344934973418344B34A9
:1030A200BC34BE344C346B346E344E340334153479
:1030B20050347934AD346034F334493471340134EA
:1030C2000034003400340A340034003400346434F0
:1030D200003400340034E834033400340034103453
:1030E200273400340034A0348634013400344034B0
:1030F20042340F340034803496349834003400342F
:10310200E134F53405340034CA349A343B34413462
:103112006934723420346D346F34693473347434E6
:10312200203420342034203420342034203400341D
:1031320043344F343234203469346E3420346134B1
:103142006934723420342034203420342034203442
:1031520000344D34653461347334753472346934F7
:103162006E3467342E342E342E34203420342034FE
:103172002034003453346534743420346134693477
:1031820072342034743465346D3470342E34203407
:1031920020342034003453346534743420346134A0
:1031A2006934723420346D346F3469347334743456
:1031B20020342034203400345334653474342034C1
:1031C20043344F343234203469346E342034613421
:1031D2006934723420342034003441346934723416
:1031E2002034743465346D3470346534723461342F
:1031F20074347534723465342034003453346F348B
:1032020069346C342034743465346D34703465340C
:103212007234613474347534723465340034473432
:103222007234653473346B3461342034533448342B
:1032320054343734313421340034203425342034AA
:1032420020342034203420342034203420342034DC
:10325200203400342034643465346734203420341C
:1032620020342034203420342034203400342034DC
:10327200703470346D3420342034203420342034BF
:103282002034203420340034203425342E34313498
:0C329200663400342534343464340034D5
:1035FA008316861386130800831207128710071092
:10360A0087118512080064008001840A04060319E0
:10361A0000340406092B1E308316850485120130F6
:10362A0003178805803003138705871708000B11D5
:10363A005B30831603133806031D272BB801B1012B
:10364A00B10A2D2B41303806031D2D2BAF01AF0ACD
:10365A00B80A8312810171088A00700E8300FE0E77
:10366A007E0E09004530D4009930D5005E08D60098
:10367A005F08D7006008D800B9300A128A112620DC
:10368A000A168A150130F601F60A0A128A15E82680
:10369A000A168A158830F7009830F8000A128A1537
:1036AA002F250A168A150230F601F60A0A128A1519
:1036BA00E8260A168A15B930F700F8010A128A159F
:1036CA002F250A168A150630F60002300A128A15C4
:1036DA00E8261E30F7009930F8000A128A152F2DB5
:1036EA004530D4009930D5005E08D6005F08D7006F
:1036FA006008D800C3300A128A1126200A168A15D1
:10370A000130F601F60A0A128A15E8260A168A15FF
:10371A00EE30F7009830F8000A128A152F250A169B
:10372A008A150230F601F60A0A128A15E8260A16DE
:10373A008A15C330F700F8010A128A152F250A16CE
:10374A008A150630F60002300A128A15E8262B304E
:10375A00F7009930F8000A128A152F2D4530D40047
:10376A009930D5005E08D6005F08D7006008D800F7
:10377A00C3300A128A1126200A168A150130F60168
:10378A00F60A0A128A15E8260A168A15FF30F70081
:10379A009830F8000A128A152F250A168A1502305F
:1037AA00F601F60A0A128A15E8260A168A15C3309D
:1037BA00F700F8010A128A152F250A168A1506300B
:1037CA00F60002300A128A15E8262B30F7009930E3
:1037DA00F8000A128A152F2D72088312A0007308A6
:1037EA00A1007408A2000310210D220DA8002808C8
:1037FA00031D042CF201F301F401F5010800750818
:10380A00A0007608A1007708A2000310210D220D5E
:10381A00A70027080319FF2B7F30F317F401F617C7
:10382A00F701A301A401A501A601A8029830270760
:10383A00A000A8021830A7000310A30DA40DA50D1F
:10384A00A60D77087402031D302C76087302031D37
:10385A00302C75087202031C3E2C7508F202760899
:10386A00031C760FF3027708031C770AF402231469
:10387A000310F20DF30DF40DA70B212CA81F522CE7
:10388A002808803A973E031CFF2B0310A60CA50CB0
:10389A00A40CA30CA80F4A2C602C18302802031879
:1038AA00FF2B28080319602C0310A30DA40DA50DE6
:1038BA00A60DA803562C2608F5002508F4002408AE
:1038CA00F3002308F200080083120313E930B3015E
:1038DA00B401AE01AF01AA00FF30AB00CB30AC009F
:1038EA00FF30AD008B12B001F1240A168A15730855
:1038FA00B2007208B10000303202ED300319310211
:10390A00031C9B2C2B08F3002A081A250A128A1179
:10391A0074260A168A1573088312B4007208B30053
:10392A00FA30B3070318B40A1930AE2C2D08F30085
:10393A002C081A250A128A1174260A168A1573087F
:10394A008312B4007208B300BC30B3070318B40A78
:10395A003430B4073308AE070318AF0A3408AF0788
:10396A003430A900F130A800A80BB92CA90BB92C46
:10397A00BE2C831203130730B00A3002031C792CC1
:10398A008B160730F200F3012F08F5002E08F40019
:10399A000A128A1535270A168A157308B40072089E
:1039AA00B300013034025E30031933020318E12CEC
:1039BA005E30B3000130B400153034027D30031993
:1039CA003302031CEC2C7C30B3001530B4003408ED
:1039DA00A7003308A600080083120313A001A1015F
:1039EA00A201A3011F140330F5009730F400F40B71
:1039FA00FC2CF50BFC2C012D831203139F149F182A
:103A0A00042D83161E088312A0041E08A20422088D
:103A1A00A500A4012008A4070318A50A2108A507E0
:103A2A002508F3002408F2000800F2003208F50025
:103A3A003108F4000800723084000008831203136E
:103A4A00A000840A0008A100840A0008A200840ACF
:103A5A000008A3000310220D230DAD002D08031D3D
:103A6A003B2DF201F301F401F50108007530DE2562
:103A7A000A168A150310220D230DAC002C0803190F
:103A8A00362D723084008030840A840A80047230B1
:103A9A00840A84007530840A840A840A80018400B6
:103AAA008030840A840A80047530840A84007F3056
:103ABA00840A840A840A8001A801A901AA01AB0127
:103ACA00AD02A0302C07A000AD022030AC0075304A
:103ADA000310A80DA90DAA0DAB0DDE250A168A152D
:103AEA00723084000008A400840A0008A500840A31
:103AFA000008A600840A0008A70023082702031D5D
:103B0A00902D22082602031D902D21082502031D4F
:103B1A00902D20082402031CAC2D7530DE250A16D0
:103B2A008A157230840020088002840A2108031C46
:103B3A00210F8002840A2208031C220F8002840AB1
:103B4A002308031C230A80020330840228147230DB
:103B5A0084000310800D840A800D840A800D840A73
:103B6A00800DAC0B6C2DAD1FC72D2D08803A9F3EE2
:103B7A00031C362D0310AB0CAA0CA90CA80CAD0F14
:103B8A00BF2DD52D20302D020318362D2D080319EF
:103B9A00D52D0310A80DA90DAA0DAB0DAD03CB2D84
:103BAA002B08F5002A08F4002908F3002808F20077
:103BBA00080084000008A000840A0008A100840A02
:103BCA000008A200840A0008A30008000A128A1545
:103BDA005F270A168A150A168A15FD220A168A15F9
:103BEA000A168A1181220A168A150A128A150320D0
:103BFA000A168A1500308312A800A7002530A600ED
:103C0A008030A5000A168A110A200A168A150A1691
:103C1A008A1510230A168A150A168A1501230A1606
:103C2A008A150A128A150F200A168A150A168A1187
:103C3A0001200A168A15C830ED00CB300A168A11FF
:103C4A00BD220A168A150A168A11BC210A168A1575
:103C5A004E088316A40083124F088316A500831208
:103C6A0050088316A600831631080319622EC8303D
:103C7A00B1018312ED00CB300A168A11BD220A1651
:103C8A008A150A168A1569240A168A1527088316B8
:103C9A00AE00831226088316AD000A168A11BC21CB
:103CAA000A168A154E088316A40083124F08831633
:103CBA00A500831250088316A6002F080319BB2EED
:103CCA00AF01A72E4B088312DE0083164C0883121D
:103CDA00DF0083164D088312E0000A168A15752341
:103CEA000A168A15B52E48088312DE00831649087B
:103CFA008312DF0083164A088312E0000A168A1527
:103D0A0037230A168A15B52E2E088312AC0083169D
:103D1A002D088312AB000A128A152E200A168A155C
:103D2A00B52E24088312DE00831625088312DF00CD
:103D3A00831626088312E0000A168A15B3230A1688
:103D4A008A15B52E3008013A0319672E033A03196A
:103D5A00782E013A0319892E073A0319962EB52EA1
:103D6A0083160530B00A30020318B0018312051E0B
:103D7A00DC2E34308316E800F130E700E70BC32E5F
:103D8A00E80BC32EC82E83120313051ECF2E8316EB
:103D9A00B301B30A8312051ACF2E34308316E80012
:103DAA00F130E700E70BD72EE80BD72EDC2E83166F
:103DBA00031333080319E92EB3018B120A128A1569
:103DCA00B0230A168A158B160A168A15EF260A16C2
:103DDA008A15382E8312071E072F83162708831287
:103DEA00CE00831628088312CF008316290883126F
:103DFA00BC270A128A11C1250A168A1503181D2F13
:103E0A0007121D2FE6270A168A15CD30C200CC30BC
:103E1A00C300BE30D8270A128A15EE220A168A155E
:103E2A00F9270A128A11C1250A168A15031C0716D0
:103E3A00871D352FE627831627088312D10083169C
:103E4A0028088312D200831629088312D3000A1283
:103E5A008A11C1250A168A1503184B2F87114B2F71
:103E6A00CD30C200CC30C3003E30D8270A128A15A2
:103E7A00EE220A168A15F3270A168A15BC270A1291
:103E8A008A11C1250A168A15031C8715871C6E2FED
:103E9A002030C201C3004030CA270A128A15EE2216
:103EAA000A168A15F327D000831648088312D10010
:103EBA00831649088312D20083164A088312D30054
:103ECA000A128A11C1250A168A1503188C2F87101F
:103EDA008C2F831648088312CE0083164908831252
:103EEA00CF0083164A088312D0002030C201C300D3
:103EFA00C030CA270A128A15EE220A168A15F9272D
:103F0A000A128A11C1250A168A15031C87148316F8
:103F1A003208031908008312071CA82F7A08063EE4
:103F2A00D4007B080318013EFF3ED50083162E02FB
:103F3A00031DA32F8312540883162D0203180800A9
:103F4A008312071008007A08FA3ED4007B08031887
:103F5A00013ED50083162E0883125502031DB92F80
:103F6A0083162D0883125402031C07140800D0007C
:103F7A0083164B088312D10083164C088312D20091
:103F8A0083164D088312D3000800C40083162A083A
:103F9A008312C50083162B088312C60083162C08C9
:103FAA008312C7000800C400831627088312C500BD
:103FBA00831628088312C600831629088312C700AD
:103FCA00080083164B088312CE0083164C0883120E
:103FDA00CF0083164D088312D00008004208CE0095
:103FEA004308CF00440808004208D1004308D20021
:063FFA004408D30008009A
:04400E00F2EFFFFFCF
:00000001FF
