:060000000A128A110C280F
:10000800FE00030EF0000A08F1000A128A153228D1
:100018000A128A110F28A030FA01FB01EE0183139E
:100028008400C2300A128A15082083010A168A152C
:10003800702D831607138713C0308B048C16831218
:100048002808031D080001302702031D3128C2308B
:100058002602031D3128013025020318080028084C
:10006800031D41282708031D412801302602031DCE
:100078003F282C302502031C080080302506253037
:100088000319260627042804031D602898200A124D
:100098008A1152250A128A1182200A128A115225BF
:1000A8000A128A117308AF007208AE00FF30AE075B
:1000B8000318AF0AAF076E2898200A128A11522532
:1000C8000A128A1182200A128A1152257308AF0077
:1000D8007208AE00831618150317871583120313C9
:1000E8002E088316990083122F0883169A00181277
:1000F8008312981718168316981608007508AC000E
:100108007408AB007308AA007208A9000430F20052
:10011800F301F401F5012C08F9002B08F8002A086E
:10012800F7002908F60008002808F5002708F40059
:100138002608F3002508F2007A30F901F800123099
:10014800F700F60108008316D4005630C50094273E
:100158000A168A1500200A128A118316D800580830
:100168000319872C253058060319BE285408840023
:100178005808832CC601C701D9270A168A150020FA
:100188000A128A112E3A031D05298316471783126E
:10019800D40A0319D50A8316D201D301D9270A161E
:1001A8008A1500200A128A1131270A128A11031CA3
:1001B8000C2983165308F3005208F2000A30F400A1
:1001C800F5019B250A128A11D9270A168A150020DB
:1001D8000A128A117207D900003003180130730718
:1001E800DA005908D03E8316D20083125A08031841
:1001F800013EFF3E8316D3008312D40A0319D50AA1
:10020800D2288316D201D30147160C2947151B297A
:1002180094270A168A1500200A128A118316D80014
:10022800003A0319872C663A03190A29AB28831266
:100238000730D901831647058312DA0059040319D8
:10024800452C8316471E2B290630D200D3014508BA
:10025800840083130008D500840A0008D600840AA5
:100268000008D7000330C50755088312CE0083164F
:1002780056088312CF00831657088312D000D10185
:10028800D201D3018C240A128A1103185D2983161E
:100298005508F2005608F3005708F400B4250A126E
:1002A8008A117208D5007308D6007408D700033085
:1002B800C6048316D001D101570856045504031902
:1002C800042AD5308400831300088312D900840AD5
:1002D8000008DA00840A0008DB00840A0008DC0051
:1002E8000F300310DC0CDB0CDA0CD90CFF3E031DBD
:1002F80075295A088316D100831259088316D0002D
:100308008230D101D007031CD103FF30D007031C72
:10031800D1030330F200F3015108F5005008F4004E
:100328009B2573088316D1007208D0000A30831207
:10033800A000A101831651088312A3008316500858
:100348008312A2000A168A1128260A128A11210885
:100358008316D100831220088316D000D11FB82934
:10036800FF30D007031CD1035003FF3A0A168A1145
:100378008E240A128A117F270A128A11B827831637
:100388004C088312AB0083164D088312AC00831609
:100398004E088312AD000A168A11AA260A128A117B
:1003A80028088316CC00831229088316CD008312EF
:1003B8002A088316CE0056270A128A118030D101E6
:1003C800D2003F30D3008C240A128A110318F22974
:1003D800FF308316D007031CD103042A831656273F
:1003E8000A128A112030D101D2004130D3008C2466
:1003F8000A128A11031C042A8316D00A0319D10A87
:1004080083165308803AFF0080307F02031D0E2AAE
:100418000D3052020318382A8316031352080A169D
:100428008A159D260A128A113708C2003808C300A7
:100438003908C400831655088312C5008316560868
:100448008312C600831657088312C700BC250A12F8
:100458008A1142088316D500831243088316D600F2
:10046800831244088316D700831603135108803A71
:10047800FF0080307F02031D432A0A305002031810
:10048800642A8316031357085604550403199F2A30
:10049800A1270A128A11B8240A128A1145084404AD
:1004A80043044204031D9F2A83165108803AFF0023
:1004B80080307F02031D622A02305002031C9F2AEB
:1004C8008316031356270A128A117030D100893017
:1004D800D2004030D3008C240A128A110318762ADD
:1004E800F730772AF8308316D007031CD103500859
:1004F8000A168A118E240A128A117F270A128A1173
:10050800F2005608F3005708F4004C08F5004D08AF
:10051800F6004E08F700B9260A128A1175088316E4
:10052800CB007408CA007308C9007208C800D50156
:10053800D601D701DF2A83160313A1270A128A11CD
:10054800B8240A128A1162270A128A11C8004B08B5
:100558008312A30083164A088312A200831649084F
:100568008312A100831648088312A00099260A1254
:100578008A112008CE002108CF002208D000831657
:1005880055088312D100831656088312D2008316A9
:1005980057088312D3007E260A128A114E08831642
:1005A800D50083124F088316D6008312500883168D
:1005B800D700D001D101D801D80A58088312D90030
:1005C80001300310D90DFF3E0310031DE62A8C27C6
:1005D8000A168A1500200A128A11DA000A168A15E4
:1005E80000200A128A11DB000A168A1500200A1256
:1005F8008A11DC000A168A1500200A128A11DD0009
:1006080083164B02031D182B83125C0883164A02BB
:10061800031D182B83125B0883164902031D182B30
:1006280083125A0883164802031C1F2B0A30D80A63
:100638005806031DE12A4608033903195B2B5408A1
:1006480084002D30582B58088312D900013003102C
:10065800D90DFF3E0310031D2C2B8C270A168A1573
:1006680000200A128A11F2000A168A1500200A12BE
:100678008A11F3000A168A1500200A128A11F4005A
:100688000A168A1500200A128A11AD270A128A1141
:1006980052250A128A113F270A128A1113250A12B3
:1006A8008A1171270A128A1183138000D40AD80389
:1006B800580F272B5108803AFF0080307F02031D16
:1006C800672B01305002031C722B83160313C327B8
:1006D8000A128A11D007031CD1035E2B8316031359
:1006E8005308803AFF0080307F02031D7D2B0930BC
:1006F8005202031C832B083083160313862B8316A0
:1007080003135208D800D2270A128A11D202831280
:100718005A088316031CD303D302580803199A2BCB
:10072800540884002E3083138000D40A58080A160F
:100738008A118E240A128A1137088316C20083127E
:1007480038088316C300831239088316C400420888
:100758008312AB00831643088312AC008316440847
:100768008312AD0083165508B8270A168A11AA26DF
:100778000A128A112808C2002908C3002A08C400DE
:10078800B8240A128A1162270A128A11362C5808CC
:100798008312D90001300310D90DFF3E0310031D49
:1007A800D02B8C270A168A1500200A128A11F2000B
:1007B8000A168A1500200A128A11F3000A168A15E9
:1007C80000200A128A11F4000A168A1500200A125B
:1007D8008A11AD270A128A1152250A128A113F2757
:1007E8000A128A1113250A128A1171270A128A110C
:1007F80083138000D40A58088312D90001300310EB
:10080800D90DFF3E0310031D042C8C270A168A15E8
:1008180000200A128A11F2000A168A1500200A120C
:100828008A11F3000A168A1500200A128A11F400A8
:100838000A168A1500200A128A11F50083164B0839
:10084800F9004A08F8004908F7004808F600132597
:100858000A128A1175088316CB007408CA00730837
:10086800C9007208C800D803580FCB2B520853048C
:100878000319AB28C3270A128A11D207031CD30312
:100888003A2C831652085304031D522C4B084A0471
:10089800490448040319D20A0319D30A58088312D1
:1008A800D900DA01D91BDA035A08803ADB0083162B
:1008B8005308803A83125B02031D662C8316520884
:1008C80083125902031C7A2C831603135808D22763
:1008D8000A128A115308803A8312DB005A08803AB8
:1008E8005B02031D7A2C59088316520283160313E0
:1008F800460803390319AB28540884002D308313A4
:100908008000D40AAB2854088400831380010800AF
:10091800D01F9B2C4E08003CCE004F08031C4F0FE5
:10092800003CCF005008031C500F803CD000D31F60
:10093800AA2C5108003CD1005208031C520F003C5D
:10094800D2005308031C530F803CD3008030D006DC
:10095800D30653085002031D080052084F02031D16
:10096800080051084E020800CB270A128A1103100A
:10097800470D480DCE004E08031DC72CC201C30108
:10098800C401C5010800CB270A128A1117300310C9
:10099800C80CC70CC60CFF3E031DCB2C4608C9006B
:1009A800C317C4014208CA004308CB004408CC005E
:1009B8008E30CD01CE02CE1FEE2C4E08803A8F3EEF
:1009C800031CC22C0310CD0CCC0CCB0CCA0CCE0FC4
:1009D800E62CFC2C18304E020318C22C4E080319C2
:1009E800FC2C0310CA0DCB0DCC0DCD0DCE03F22C73
:1009F800490803190A2DCA09CB09CC09CD09CA0A25
:100A08000319CB0A0319CC0A0319CD0A4D08C500EE
:100A18004C08C4004B08C3004A08C2000800750807
:100A28007404730472040319492D8312A001A00AE7
:100A3800F51B242D0310F20DF30DF40DF50D1B2DF0
:100A480075087902031D322D74087802031D322DB2
:100A580073087702031D322D72087602031C432D9A
:100A68007208F6027308031C730FF7027408031C5C
:100A7800740FF8027508031C750FF9020310F50CC2
:100A8800F40CF30CF20CA00B242D7908F50078086F
:100A9800F4007708F3007608F20008008312A0013A
:100AA800A101A201A3017508740473047204031957
:100AB800922DA401A40AF51B672D0310F20DF30D66
:100AC800F40DF50D5E2D0310A00DA10DA20DA30DC3
:100AD80075087902031D7A2D74087802031D7A2D92
:100AE80073087702031D7A2D72087602031C8C2D79
:100AF8007208F6027308031C730FF7027408031CCC
:100B0800740FF8027508031C750FF90220140310FE
:100B1800F50CF40CF30CF20CA40B672D2308F5006C
:100B28002208F4002108F3002008F2000800F6016A
:100B3800F701721CA52D7408F6070318F70A750843
:100B4800F7070310F40DF50D0310F30CF20C7208FF
:100B58007304031D9D2D7708F3007608F200080042
:100B6800740873047204031908008030F40608003E
:100B78004208C8004308C9004408CA000310490DC8
:100B88004A0DCD004508C8004608C9004708CA00F4
:100B98000310490D4A0DCC004D080319DF2D4C08F0
:100BA8004D024C080318E72DC8004D08C80219303B
:100BB8004802031CE62D4508C2004608C300470842
:100BC800C40008004C08031908004D084C0203181B
:100BD800F52D4D08C8004C08C80219304802031802
:100BE80008000630CB00C41BCB17C71B4B17C31715
:100BF800C401C617C7014C084D0203181C2E031068
:100C0800C50DC60DC70DCC034C084D060319172E8C
:100C1800CB034B0807390319172E032E0310C40CF6
:100C2800C30CC20CCD0A4D084C060319382E122EDF
:100C38004D084C020318382E0310C20DC30DC40D05
:100C4800CD034C084D060319342ECB034B08073946
:100C58000319342E202E0310C70CC60CC50CCC0A61
:100C68004D084C06031D2F2ECB1F432EFF30C20606
:100C7800C306C406C20A0319C30A0319C40A4B1FD0
:100C88004E2EFF30C506C606C706C50A0319C60A92
:100C98000319C70ACB014208C50743080311031803
:100CA800430A031DC607440803110318440A031D19
:100CB800C707C71F6A2EFF30C506C606C706C50A7E
:100CC8000319C60A0319C70ACB01CB0A4508F20063
:100CD8004608F3004708F4004D08F5004B08F600F5
:100CE8000A168A1125277208C2007308C3007408FF
:100CF800C400080050084F044E040319852E8030A4
:100D0800D0065108C2005208C3005308C4004E0858
:100D1800C5004F08C6005008C700BC254208CE00D1
:100D28004308CF004408D00008008E30A400FF30EC
:100D380023050319A62E0310A30CA20CA10CA00CCA
:100D4800A40A9B2E2008F2002108F3002208F400D0
:100D58002408F500F6010A168A1125277208A00052
:100D68007308A1007408A200080072088312A0008A
:100D78007308A1007408A2000310210D220DA80019
:100D88002808031DCC2EF201F301F401F501080037
:100D98007508A0007608A1007708A2000310210DAD
:100DA800220DA70027080319C72E7F30F317F40177
:100DB800F617F701A301A401A501A601A80298301E
:100DC8002707A000A8021830A7000310A30DA40D40
:100DD800A50DA60D77087402031DF82E7608730278
:100DE800031DF82E75087202031C062F7508F202FF
:100DF8007608031C760FF3027708031C770AF402BF
:100E080023140310F20DF30DF40DA70BE92EA81F00
:100E18001A2F2808803A973E031CC72E0310A60CE9
:100E2800A50CA40CA30CA80F122F282F18302802E9
:100E38000318C72E28080319282F0310A30DA40D83
:100E4800A50DA60DA8031E2F2608F5002508F400F9
:100E58002408F3002308F2000800F3003A30F201F6
:100E6800730203183D2F30307302031C3D2FF2012B
:100E7800F20A720C080075088316CF007408CE00B9
:100E88007308CD007208CC000A30F200F301F401B7
:100E9800F5014F08F9004E08F8004D08F7004C0816
:100EA800F60008004C088312CE0083164D08831202
:100EB800CF0083164E088312D00008004508831619
:100EC800CB00831244088316CA0083124308831692
:100ED800C900831242088316080075088316CF00DC
:100EE8007408CE007308CD007208CC005408840042
:100EF8004C08303E080037088316CC0083123808A7
:100F08008316CD00831239088316CE0055080800D1
:100F1800590D603E840098300318013EFF00080018
:100F280083125508DA005408D900D40A0319D50ADF
:100F38005A08FF0059088400080055088312C200A7
:100F4800831656088312C300831657088312C400F9
:100F58000800F50083164B08F9004A08F80049080C
:100F6800F7004808F60008008312A8008316560800
:100F78008312A900831657088312AA000800540890
:100F88008400303083138000FF30D40A0800420800
:100F9800C6004308C7004408C80008008312D900E7
:100FA800DA01D91BDA038316080083125508FF00FB
:100FB800540884000800EE018316AF01FB01FA0112
:100FC800A901AA01AD01AC01AB01AB0AB101B001A5
:100FD800AE01AE0AA701A801080083121008CF3994
:100FE80010389000D8308F00EF308E0083160C1424
:080FF8008B178312101408008E
:1010020083120712871007108711851208006400E7
:101012008001840A04060319003404060928831691
:1010220081128115073081048B17831281018B167F
:1010320008001E30831685048512013003178805C7
:1010420080300313870587170800831603130514DE
:1010520003170814831203139F0183169F170C139F
:1010620008000B1D39280B11831203138101582824
:10107200831203130C10F43083162906031D49282A
:101082002A03031D4928A901AA01AD01AD0A50286E
:10109200C83029062A04031D5028AB01AB0AA90A4D
:1010A2000319AA0AD83083128F00EF308E0071081C
:1010B2008A00700E8300FE0E7E0E0900F801F9010F
:1010C2007F200A168A1500200A128A15003A03198F
:1010D20008007F200A168A1500200A128A15772036
:1010E2000A128A15F80A0319F90A6128F20083160E
:1010F200981C7828720883129900080078087307F0
:10110200F6007408F5000318F50AF81BF5037508D4
:10111200F70083120313FF00760884000800623090
:10112200D4009930D5005E08D6005F08D700600869
:10113200D800B7300A128A11A7200A128A15013084
:10114200F601F60A85260A128A15FF30F700983052
:10115200F800AE260A128A150230F601F60A852632
:101162000A128A15B730F700F801AE260A128A155C
:101172000630F600023085260A128A152B30F70057
:101182009930F800AE2E6230D4009930D5005E0856
:10119200D6005F08D7006008D800B7300A128A115B
:1011A200A7200A128A150130F601F60A85260A12CC
:1011B2008A15EE30F7009830F800AE260A128A152A
:1011C2000230F601F60A85260A128A15B730F700B0
:1011D200F801AE260A128A150630F600023085267C
:1011E2000A128A152B30F7009930F800AE2E6230C1
:1011F200D4009930D5005E08D6005F08D700600899
:10120200D800B2300A128A11A7200A128A150130B8
:10121200F601F60A85260A128A158830F7009830F8
:10122200F800AE260A128A150230F601F60A852661
:101232000A128A15B230F700F801AE260A128A1590
:101242000630F600023085260A128A151E30F70093
:101252009930F800AE2E0130F601F60A85260A1200
:101262008A159930F7009830F800AE260A128A15CE
:1012720083162E080319542983122C08A5002B0863
:10128200A4000230A600A701A70AA0230A128A1509
:101292000530F600023085260A128A153830F7002A
:1012A2009930F800AE2E0230F601F60A85260A12AF
:1012B2008A15AA30F7009830F800AE2E6230D400BA
:1012C2009930D50003304B267608D6007708D70030
:1012D2007808D800B2300A128A11A7200A128A1599
:1012E2000130F601F60A85260A128A15CC30F7007B
:1012F2009830F800AE260A128A150230F601F60A74
:1013020085260A128A15B230F700F801AE260A12B3
:101312008A150630F600023085260A128A15223016
:10132200F7009930F800AE260A128A1583163008A3
:10133200031D08006B220A128A157B080319FF2974
:10134200831203138030C201C3003F30C400033054
:101352004B267608C5007708C6007808C7000A122F
:101362008A11BC250A128A154208CE004308CF0012
:101372004408D0000330C6260A128A1583120313CA
:10138200C630CE01CF004230D00003304B26760863
:10139200D1007708D2007808D3000A128A118C246F
:1013A2000A128A150318DE29C630CE01CF00423058
:1013B200D0000330C6260A128A156230FB0183125E
:1013C2000313D4009930D50003304B267608D6009B
:1013D2007708D7007808D800B2300A128A11A720FD
:1013E2000A128A150230F601F60A85260A128A15B1
:1013F200B230F700F801AE260A128A157A080319EC
:101402005E2A831203138030C201C300BF30C400BE
:1014120003304B267608C5007708C6007808C70057
:101422000A128A11BC250A128A154208CE00430804
:10143200CF004408D0000330C6260A128A150330B2
:101442004B267608CE007708CF007808D000F0301F
:10145200D101D2004130D3000A128A118C240A121F
:101462008A1503183D2AF030CE01CF004130D0005A
:101472000330C6260A128A156230FA018312031358
:10148200D4009930D50003304B267608D600770871
:10149200D7007808D800B2300A128A11A7200A129F
:1014A2008A150230F601F60A85260A128A15B2302A
:1014B200F700F801AE260A128A15831203136E088A
:1014C20003199729EE018316B101B10AC7220A1244
:1014D2008A1597298312051D892A3430F300F130C9
:1014E200F200F20B722AF30B722A772A8312031389
:1014F200051D7D2AFB01FB0A0230F4008630F30051
:101502009930F200F20B832AF30B832AF40B832A1D
:1015120083120313851DA82A3430F300F130F20040
:10152200F20B912AF30B912A962A83120313851D3B
:101532009C2AFA01FA0A0230F4008630F30099304C
:10154200F200F20BA22AF30BA22AF40BA22A8312B4
:101552000313851C08003430F300F130F200F20B63
:10156200B02AF30BB02AB52A83120313851CBB2AB7
:10157200EE01EE0A8518BB2A3430F300F130F20096
:10158200F20BC12AF30BC12AC62A08000130F60168
:10159200F60A85260A128A15DD30F7009830F8001F
:1015A200AE260A128A150230F601F60A85260A12BA
:1015B2008A152030F7009930F800AE260A128A15F3
:1015C2000230F601F60A85260A128A1506305B26D3
:1015D2000A128A157708A5007608A4000230A60030
:1015E200A701A70AA0230A128A150630F6000230C4
:1015F20085260A128A152230F7009930F800AE26A5
:101602000A128A1583126E08031D08006B220A1241
:101612008A157B0803194C2B06305B260A128A15A1
:101622007608643EA30077080318013E003EA4003A
:10163200063099230A128A1506305B260A128A1589
:101642007708803AFF0093307F02031D2A2B8930EE
:101652007602031C362B883083120313A300133047
:10166200A400063099230A128A150230FB01F60102
:10167200F60A85260A128A1506305B260A128A1590
:101682007708A5007608A4000230A600A701A70AE1
:10169200A0230A128A157A0803198E2B06305B26BC
:1016A2000A128A1576089C3EA30077080318013EA9
:1016B200FF3EA400063099230A128A1506305B26E3
:1016C2000A128A157708803AFF0081307F02031DD3
:1016D2006C2B2C3076020318782B2C3083120313D8
:1016E200A3000130A400063099230A128A150230A1
:1016F200FA01F601F60A85260A128A1506305B26D9
:101702000A128A157708A5007608A4000230A600FE
:10171200A701A70AA0230A128A15831203136E08CF
:101722000319032BEE01EE0A8316B001B00A032B54
:10173200F9002330F2000230F3007908952FE830E7
:10174200A901A801F2000330F3002508F5002408DE
:10175200F400F2260A128A157208AA002A08031D4A
:10176200BC2BA901A90A2708F600260885260A1219
:101772008A152030C42B0230F601F60A85260A1299
:101782008A152A08303ECD262A08F200E830F301F5
:10179200F4000330F5000A128A119B250A128A15F9
:1017A20072088312A4027308031CA503A502643005
:1017B200F200F3012508F5002408F400F2260A12CB
:1017C2008A157208AA002A08031DF52B2908031995
:1017D200F52BA801A80A2708013EF600260885264F
:1017E2000A128A152030FC2B0230F60085260A12D6
:1017F2008A152A08303ECD262A08F2006430F30109
:10180200F400F5010A128A119B250A128A15720840
:101812008312A4027308031CA503A5020A30F20076
:10182200F3012508F5002408F400F2260A128A15AD
:101832007208AA002A08031D2D2C290803192D2C31
:10184200280803192D2C2708023EF60026088526B3
:101852000A128A152030352C0330F6000230852614
:101862000A128A152A08303ECD262A08F2000A30CA
:10187200F301F400F5010A128A119B250A128A1556
:1018820072088312A4027308031CA503A50224088C
:10189200AA002708033EF600260885260A128A15A2
:1018A2002A08303ECD2E62308312D4009930D50002
:1018B20000304B267608D6007708D7007808D80083
:1018C200B7300A128A11A7200A128A150130F601CE
:1018D200F60A85260A128A15BB30F7009830F800FE
:1018E200AE260A128A150230F601F60A85260A1277
:1018F2008A15B730F700F801AE260A128A150630AB
:10190200F600023085260A128A152130F700993036
:10191200F800AE260A128A1583163108031D602DBF
:101922006B220A128A157B080319F62CCD3083121A
:101932000313C200CC30C3003D30C40000304B263C
:101942007608C5007708C6007808C7000A128A110F
:10195200BC250A128A154208CE004308CF0044086B
:10196200D0000030C6260A128A15831203132030D3
:10197200CE01CF004230D00000304B267608D10095
:101982007708D2007808D3000A128A118C240A122E
:101992008A150318D52C2030CE01CF004230D0005A
:1019A2000030C6260A128A156230FB018312031325
:1019B200D4009930D50000304B267608D60077083F
:1019C200D7007808D800B7300A128A11A7200A1265
:1019D2008A150230F601F60A85260A128A15B730F0
:1019E200F700F801AE260A128A157A080319562D55
:1019F200CD3083120313C200CC30C300BD30C4000B
:101A020000304B267608C5007708C6007808C70064
:101A12000A128A11BC250A128A154208CE0043080E
:101A2200CF004408D0000030C6260A128A150030C2
:101A32004B267608CE007708CF007808D0007030A9
:101A4200D101D2004130D3000A128A118C240A1229
:101A52008A150318352D7030CE01CF004130D000E9
:101A62000030C6260A128A156230FA018312031365
:101A7200D4009930D50000304B267608D60077087E
:101A8200D7007808D800B7300A128A11A7200A12A4
:101A92008A150230F601F60A85260A128A15B7302F
:101AA200F700F801AE260A128A15831203136E0894
:101AB20003198D2CEE015F210A128A158D2C8312D7
:101AC200EE018316B101B00108008312071E7C2DBE
:101AD20000304B260A128A157608CE007708CF000E
:101AE2007808D1270A128A118C240A128A1503183F
:101AF200972D0712972DDF270A128A15CD30C200C3
:101B0200CC30C300BE30C40000304B260A128A1506
:101B1200EC270A128A11BC250A128A15F9270A1221
:101B22008A118C240A128A15031C0716871DAD2DF3
:101B3200DF270A128A1500304B267608D100770873
:101B4200D2007808D3000A128A118C240A128A154C
:101B52000318C82D8711C82DCD30C200CC30C30068
:101B62003E30C40000304B260A128A15EC270A12B6
:101B72008A11BC250A128A15F3270A128A15D1275F
:101B82000A128A118C240A128A15031C8715871CD3
:101B9200F02D2030C201C3004030C40003304B2678
:101BA2000A128A15EC270A128A11BC250A128A1512
:101BB200F327D00083163C088312D10083163D0818
:101BC2008312D20083163E088312D3000A128A11AE
:101BD2008C240A128A150318132E8710132E8316CB
:101BE2003C088312CE0083163D088312CF00831671
:101BF2003E088312D0002030C201C300C030C400AE
:101C020003304B260A128A15EC270A128A11BC25C8
:101C12000A128A15F9270A128A118C240A128A15C5
:101C2200031C871483162E08031908008312071C4D
:101C3200332E06305B260A128A157608063ED40039
:101C420077080318013EFF3ED50083162802031DC4
:101C52002E2E8312540883162702031808008312BB
:101C62000710080006305B260A128A157608FA3E2B
:101C7200D40077080318013ED50083162808831282
:101C82005502031D482E8316270883125402031C93
:101C92000714080083120313A300F2000330F300B9
:101CA2002030692603132008F6002108F7002208D5
:101CB200F800080083120313A200F2000230F300BE
:101CC2002030692603132108F7002008F6000800D7
:101CD200F5007508F400831603178C186C2E720831
:101CE20083128D00F303730F772E080083168C186E
:101CF200772E8C130C147408840083120C0883133F
:101D02008000F40A8D0A732E83120313A000200BA5
:101D12009A2E76087F3EA300230E0F39A1002308D6
:101D2200A2000F30A205210867270A128A1522088D
:101D3200672F02302006031D08007608BF3EA3006D
:101D4200230E0F39A1002308A2000F30A20521089B
:101D520067270A128A152208672FA301A401C02748
:101D62000A168A1500200A128A15003A0319080079
:101D7200C0270A168A1500200A128A15CD260A12D1
:101D82008A15A30A0319A40AB02ED1004E30F2001C
:101D92000330F3005108952FF600F4000F30F405DC
:101DA2007608F500F030F5058616750E0F397D2799
:101DB2000A128A1506161A30F300F30BDE2E000003
:101DC20083120313061274087D270A128A15061657
:101DD2001A30F300F30BEB2E0000831203130612EA
:101DE2000800F601F701720873040319172FF801AE
:101DF200F80AF31B002F0310F20DF30DF92E031056
:101E0200F60DF70D73087502031D092F720874028F
:101E1200031C132F7208F4027308031CF503F50266
:101E220076140310F30CF20CF80B002F7708F30072
:101E32007608F200080083168117C030031789055F
:101E42000313860100307D270A128A153430F70009
:101E5200F130F600F60B2B2FF70B2B2F302F033020
:101E620067270A128A150D30F700FB30F600F60BD1
:101E7200382FF70B382F3D2F033067270A128A15A8
:101E82001D30F7009130F600F60B452FF70B452F6A
:101E9200033067270A128A15023067270A128A1549
:101EA200023067270A128A15083067270A128A1534
:101EB200003067270A128A150C3067270A128A1522
:101EC200003067270A128A150630672FF500831241
:101ED2000313861275087D270A128A1506160B301F
:101EE200F4006230F300F30B742FF40B742F000034
:101EF2008312031306120800F200721C832F83124E
:101F02000614852F83120610F21C892F86148A2F3D
:101F12008610721D8E2F06158F2F0611F21D932F1C
:101F22008615080086110800F5007208F400831671
:101F320003178C18982F7508FF3E83128D008316A5
:101F42008C13F303730FA62F08008C18A62F7408A6
:101F520084008313000883128C00F40A8D0A031094
:101F62008B1B03148B1383160C1555308D00AA306E
:101F72008D008C140C11031CA22F8B17A22F230887
:101F82007707A1007808A0000318A00AA31BA003EA
:101F9200831203132008A200FF0021088400080016
:101FA200D00083163F088312D100831640088312A3
:101FB200D200831641088312D300080083163F081B
:101FC2008312CE00831640088312CF008316410885
:101FD2008312D00008007608C5007708C60078088A
:101FE200C70008004208CE004308CF00440808009A
:0E1FF2004208D1004308D2004408D300080082
:10214200831686138613080003170508E139103831
:10215200850008006E210A168A11003A031D0E2915
:10216200CC3017210A168A11443017210A168A1117
:10217200083083120313D3009D30D2000B30D100FC
:10218200D10BC128D20BC128D30BC128C8286E217C
:102192000A168A11CC3017210A168A11BE3017216D
:1021A2000A168A1147210A168A1183120313D700CD
:1021B200D80147210A168A1183120313D900DA01C2
:1021C200DC00DB015708DB070318DC0A5808DC07D0
:1021D2009A30C2009930C300BE30C4008030A801DA
:1021E200A9003D30AA005C08A1005B08A0004722BC
:1021F2000A168A112008AB002108AC002208AD00A3
:10220200AA260A168A11C4270A128A11BC25420874
:10221200D4004308D5004408D6008312031354089F
:10222200CE005508CF005608D0000800F3008316F0
:1022320003138716F4010130F200740A22290310F5
:10224200F20DFF3E031D202972087305031936297A
:10225200F3270A168A112D298316031387162730AE
:10226200F200F20B322935294129F3270A168A1185
:102272002730F200F20B3B293E29831603138716FF
:102282000830F40A7402031808001C29F3018316AB
:1022920003138716F401F3270A168A1150295129CC
:1022A2008316031387168312871E62290130F200F8
:1022B200740A5D290310F20DFF3E031D5B297208AB
:1022C200F3042730F200F20B642967290830F40A7C
:1022D2007402031C4C2973080800F3270A168A119A
:1022E2008930F20074297529F20B732983160313BE
:1022F20087162730F200F20B7C297F298312031301
:10230200871A8A298930F20086298729F20B8529C2
:1023120000348930F2008D298E29F20B8C29013488
:10232200F70009230A168A11073033230A168A1185
:10233200F800770884000130D9220A168A11831323
:102342008000760884000030D92283138000780848
:1023520008008316C600CB30C701F6000330F70031
:10236200C83057220A168A118316C707CB30F600E7
:102372000230F700CC3057220A168A118316C7079B
:10238200CB30F600C53091210A168A118316C70791
:1023920047080319ED2963230130F601F60A0A12F0
:1023A2008A1585260A168A111030F7009930F8002E
:1023B2000A128A15AE260A168A110B308316C40039
:1023C2002630C3006630C200C20BE529C30BE529E3
:1023D200C40BE529EC29080023088312A100831607
:1023E20022088312A00047220A168A1120088316A7
:1023F200C800831221088316C9008312220883169B
:10240200CA0021088312A100831620088312A000AB
:1024120047220A168A1120088316CC00831221084B
:102422008316CD00831222088316CE004808831239
:10243200D400831649088312D50083164A088312F2
:10244200D600CC30D7007A2354088316C8008312F2
:1024520055088316C900831256088316CA00460817
:1024620084004C088000840A4D088000840A4E08CB
:10247200800083126D088400831648088000840A55
:1024820049088000840A4A08800008002008F200F7
:102492002108F3008E30F401F500F60125277208B9
:1024A200A0007308A1007408A20008008312A20110
:1024B200A301A10109230A168A11692A0330622A9B
:1024C200053033230A168A11A2070318A30A712AB8
:1024D2007708023A03195F2A013A0319612A712A1D
:1024E200831603138617832AC930A10A210203180F
:1024F200872A1A30F900F830F800F80B7E2AF90B17
:102502007E2A000083120313861B752A861FC92A9E
:10251200A20A0319A30AC92A0130D9220A168A116A
:10252200A400A501A500A4018316A100831224081A
:102532008316A00083120130A401A501D9220A1634
:102542008A11A400A5018316A0048312250883160C
:10255200A104D12A0130D9220A168A11A400A501A8
:10256200A500A4018316A300831224088316A200E7
:1025720083120130A401A501D9220A168A11A400EE
:10258200A5018316A204831225088316A304D12A67
:102592007708023A03198D2A013A0319AB2AD12A84
:1025A200760884000030D9228313800022080800B4
:1025B200F300F401831686178030F50083120617A4
:1025C200E22AE32A831203137508861BF404E92A1C
:1025D200EA2A8312031306130310F50C7508031D70
:1025E200DF2A831686137308031DFB2A8312031343
:1025F2008617FE2A83120313861306170330F2008E
:10260200F20B012B831203130613861774080800BA
:10261200831603138613831286170613102B112BAE
:10262200831203130617152B162B8312031386131B
:102632001A2B8312031306131E2B1F2B8312031351
:102642000617232B242B831203138617282B83129E
:10265200031306132C2B2D2B831203138613312BFA
:10266200322B0800F3008316031386138030F50023
:10267200750873050319402B83128617422B8312A8
:10268200861306170330F200F20B452B8312031355
:1026920006130310F50C7508031D392B86178316D4
:1026A200861783120617552B562B003083120313FD
:1026B200861B0130F4005D2B5E2B8312031306137D
:1026C200740808008613831286170613F201831218
:1026D200031306176C2B831203130613702B093096
:1026E200F20A7202031C682B09238316031386174E
:1026F20008005708840083130008DB00840A0008DE
:10270200DC00840A0008DD005408EA005508EB00EA
:102712005608EC006630C2002430C300C230C40048
:10272200D730A8002330A9003C30AA005B08AB00D8
:102732005C08AC005D08AD00AA260A168A11C427FF
:102742000A128A11BC250A168A114208DE004308C1
:10275200DF004408E0006A08A8006B08A9006C08C2
:10276200B5270A168A11AA260A168A112808E10034
:102772002908E2002A08E300E330A8002530A90076
:102782003D30B5270A168A11AA260A168A11280888
:10279200C2002908C3002A08C400E830A8003B3060
:1027A200A900B630AA006108AB006208AC00630859
:1027B200AD00AA260A168A11C4270A128A11BC255C
:1027C2000A168A114208E4004308E5004408E600BC
:1027D2008030C201C300C030CB270A128A11BC2547
:1027E2000A168A114208D8004308D9004408DA00C0
:1027F200D730C2002330C3003C30C400C630A8002A
:10280200A730A9003830B5270A168A11AA260A1657
:102812008A11C4270A128A11BC250A168A11420893
:10282200E1004308E2004408E3006108A8006208EE
:10283200A9006308AA00C830C201C300C130C400A5
:102842005E08C5005F08C6006008C7000A128A1148
:10285200BC250A168A114208AB004308AC004408A2
:10286200AD00AA260A168A112808E4002908E50004
:102872002A08E6005808C2005908C3005A08CB27A4
:102882000A128A11BC250A168A114208E700430877
:10289200E8004408E900C630CE01CF004230D00043
:1028A2006708D1006808D2006908D3000A128A11A9
:1028B2008C240A168A110318632CC630E701E8003B
:1028C2004230E9006708CE006808CF006908D000EE
:1028D200CD30D100CC30D2003D30D3000A128A1163
:1028E2008C240A168A1103187C2CCD30E700CC30D8
:1028F200E8003D30E900570884005E088313800039
:10290200840A5F088000840A600880006708D40097
:102912006808D5006908D60008008312C100C11FEB
:102922005E2DC109C10A4108803A123E031C012DE5
:102932009E270A168A116D260A168A117308A300A9
:102942007208A20028260A168A11EB270A168A158F
:10295200DD270A168A110A168A1500200A168A111C
:10296200A8000A168A1500200A168A11A9000A165A
:102972008A1500200A168A11E3270A168A11A21B59
:10298200A30328260A168A1175270A168A15EC2728
:102992000A168A110A168A1500200A168A11AB0035
:1029A2000A168A1500200A168A11AC000A168A1520
:1029B20000200A168A11AD00AA260A168A1191274A
:1029C2000A168A11F41BF5036D260A168A11672767
:1029D2000A168A1500200A168A11A8000A168A15F4
:1029E20000200A168A11A9000A168A1500200A1662
:1029F2008A11DB270A168A11AA260A168A117D2F46
:102A02004108803A753E031C442DBD270A168A11DF
:102A1200F41BF5036D260A168A1167270A168A1512
:102A220000200A168A11A8000A168A1500200A1622
:102A32008A11A9000A168A1500200A168A11D327BC
:102A42000A168A11A21BA30328260A168A117527C1
:102A52000A168A15DD270A168A110A168A15002017
:102A62000A168A11AB000A168A1500200A168A1164
:102A7200AC000A168A1500200A168A11AD00AA2691
:102A82000A168A117D2F0330F800410817270A160B
:102A92008A15CF270A168A110A168A1500200A16E5
:102AA2008A11B7000A168A1500200A168A11B80080
:102AB2000A168A150020B90008004108803A123E21
:102AC200031CCB2D9E270A168A116D260A168A111F
:102AD2007308A3007208A20028260A168A11EB279F
:102AE2000A168A11F9270A168A1500200A168A116F
:102AF200A8000A168A1500200A168A11A9000A16C9
:102B02008A1500200A168A11E3270A168A11A21BC7
:102B1200A30328260A168A1175276F3E840098306F
:102B22000318013EFF000A168A1500200A168A11B0
:102B3200AB000A168A1500200A168A11AC000A1682
:102B42008A1500200A168A11AD00AA260A168A11D1
:102B520091270A168A11F41BF5036D260A168A11AB
:102B6200720884270A168A1500200A168A11A800FC
:102B72000A168A1500200A168A11A9000A168A1551
:102B820000200A168A11DB270A168A11AA260A16BB
:102B92008A117D2F4108803A753E031C0D2EBD27F8
:102BA2000A168A11F41BF5036D260A168A11720899
:102BB20084270A168A1500200A168A11A8000A1606
:102BC2008A1500200A168A11A9000A168A15002001
:102BD2000A168A11D3270A168A11A21BA3032826D2
:102BE2000A168A1175270A168A11F9270A168A15F2
:102BF20000200A168A11AB000A168A1500200A164E
:102C02008A11AC000A168A1500200A168A11AD0034
:102C1200AA260A168A117D2F0330F80041081727C9
:102C2200393E840098300318013EFF000A168A15C7
:102C320000200A168A11B7000A168A1500200A1601
:102C42008A11B8000A168A150020B9000800A501E9
:102C5200A11F322EA009A109A00A0319A10AA501E8
:102C6200A50AA31F3B2EA209A309A20A0319A30ABC
:102C72000130A506A601A701200821040319602E30
:102C8200A401A40AA11B492E0310A00DA10D422EDE
:102C92000310A60DA70D21082302031D522E2008A2
:102CA2002202031C5C2E2008A2022108031CA3039B
:102CB200A30226140310A10CA00CA40B492E250874
:102CC2000319682EA609A709A60A0319A70A270845
:102CD200A1002608A0000800F701F51F772EF409CD
:102CE200F509F40A0319F50AF701F70AF31F7E2E14
:102CF200F209F309F20A0319F30A720873040319B9
:102D02009D2EF601F60AF31B8A2E0310F20DF30D27
:102D1200832E73087502031D902E72087402031C21
:102D2200992E7208F4027308031CF503F5020310CE
:102D3200F30CF20CF60B8A2E77080319A52EF40970
:102D4200F509F40A0319F50A7508F3007408F2008C
:102D520008002808AE002908AF002A08B0000310B6
:102D62002F0D300DB1003108031DBB2EA801A901A2
:102D7200AA0108002B08AE002C08AF002D08B000F5
:102D820003102F0D300DB6003608031DCC2EA801FE
:102D9200A901AA01080036087B3EB1072A08B6003D
:102DA2002D08B6068030B6050730A917AC17AD015D
:102DB200B201B301B401B500281CE62EAA270A16F7
:102DC2008A1103182D0A031DB4070310AA0CA90CBB
:102DD200A80C0310AB0DAC0DAD0DB50BDD2E0930FB
:102DE200B500281CFB2EAA270A168A1103182D0AE1
:102DF200031DB4070310AA0CA90CA80C0310B40CF1
:102E0200B30CB20CB50BF22E3208F2003308F30009
:102E12003408F4003108F5003608F6002527720858
:102E2200A8007308A9007408AA000800A400A3015E
:102E320078082418A3070310F80D0310A40C240823
:102E4200031D192F23080800750803192D2F740874
:102E520073047204031D362FF201F301F40108001A
:102E6200F50A0310F40CF30CF20CFE30740503198E
:102E7200452F312FF50AF20A0319F30A0319F40A4E
:102E82000310F40CF30CF20CFF3074050319532FEA
:102E92003B2F02307502031C552FF5030310F20D70
:102EA200F30DF40DF31F4A2F751CF3130310F50CE9
:102EB2007508F900F801F7017708F2047808F304BD
:102EC2007908F4047608031DF41708007208BA00A2
:102ED2007308BB003A083A073A07123E840098305A
:102EE2000318013EFF0008002008BC002108BD00B5
:102EF2003C083C073C0708002808B7002908B8002E
:102F02002A08B9000800BA007308BB003A083A0759
:102F12003A07393E840098300318013EFF0008004A
:102F22002808BE002908BF002A08C0000A30F200A3
:102F3200F3014108F400F50108000A30A000A101E4
:102F42004108F400F501F41BF5036430F200F301CB
:102F520008002B08B2072C08031103182C0A031DC2
:102F6200B3072D0803110800AA006A08AB006B081A
:102F7200AC006C08AD0008000A30F200F301410811
:102F8200F400F50108002808C5002908C6002A082F
:102F9200C7000800C4006408C5006508C6006608CA
:102FA200C7000800AA000A30A000A1014108A2003F
:102FB200A3010800AA003E08AB003F08AC0040088D
:102FC200AD000800AA006430A000A1014108A200DF
:102FD200A30108002008BA002108BB003A083A07FA
:102FE2003A07080083160313871283128712080018
:102FF200543E840098300318013EFF000800FF1B76
:103002000A2883137F1883170008840A0319FF0A0A
:1030120008007F087F398A000408840A0319FF0A1E
:103022008200003480343F34CD34CC343D34D73444
:1030320023343C34123483343A34B734D134383400
:10304200C63427343734383486343534C034D63431
:103052003334CC342B343234703489343034E73462
:10306200DB342E34E5343C341E344234A2340D3485
:10307200003480343F340034203441340034C834C6
:10308200423400347A34443440341C3446345034AC
:10309200C3344734243474344934973418344B34A9
:1030A200BC34BE344C346B346E344E340334153479
:1030B20050347934AD346034F334493471340134EA
:1030C2000034003400340A340034003400346434F0
:1030D200003400340034E834033400340034103453
:1030E200273400340034A0348634013400344034B0
:1030F20042340F340034803496349834003400342F
:10310200E134F53405340034CA349A343B34413462
:103112006934723420346D346F34693473347434E6
:10312200203420342034203420342034203400341D
:1031320043344F343234203469346E3420346134B1
:103142006934723420342034203420342034203442
:1031520000344D34653461347334753472346934F7
:103162006E3467342E342E342E34203420342034FE
:103172002034003453346534743420346134693477
:1031820072342034743465346D3470342E34203407
:1031920020342034003453346534743420346134A0
:1031A2006934723420346D346F3469347334743456
:1031B20020342034203400345334653474342034C1
:1031C20043344F343234203469346E342034613421
:1031D2006934723420342034003441346934723416
:1031E2002034743465346D3470346534723461342F
:1031F20074347534723465342034003453346F348B
:1032020069346C342034743465346D34703465340C
:103212007234613474347534723465340034473432
:103222007234653473346B3461342034533448342B
:1032320054343734313421340034203425342034AA
:1032420020342034203420342034203420342034DC
:10325200203400342034643465346734203420341C
:1032620020342034203420342034203400342034DC
:10327200703470346D3420342034203420342034BF
:1032820020342034203400340A3454344734533444
:1032920020344F344B342E340A3400340A3453343D
:1032A2004834543420344F344B342E340A340034EE
:1032B2000A344434533420344F344B342E340A34D9
:0E32C2000034203425342E3431346634003488
:1037B00072308400000883120313A000840A0008FA
:1037C000A100840A0008A200840A0008A3000310D4
:1037D000220D230DAD002D08031DF32BF201F30183
:1037E000F401F5010800753096240A168A150310B5
:1037F000220D230DAC002C080319EE2B723084002F
:103800008030840A840A80047230840A840075300F
:10381000840A840A840A800184008030840A840A2D
:1038200080047530840A84007F30840A840A840A04
:103830008001A801A901AA01AB01AD02A0302C07AB
:10384000A000AD022030AC0075300310A80DA90D0A
:10385000AA0DAB0D96240A168A1572308400000852
:10386000A400840A0008A500840A0008A600840AAF
:103870000008A70023082702031D482C220826025F
:10388000031D482C21082502031D482C2008240272
:10389000031C642C753096240A168A157230840035
:1038A00020088002840A2108031C210F8002840A58
:1038B0002208031C220F8002840A2308031C230A07
:1038C0008002033084022814723084000310800DBB
:1038D000840A800D840A800D840A800DAC0B242C90
:1038E000AD1F7F2C2D08803A9F3E031CEE2B03104A
:1038F000AB0CAA0CA90CA80CAD0F772C8D2C20308A
:103900002D020318EE2B2D0803198D2C0310A80D82
:10391000A90DAA0DAB0DAD03832C2B08F5002A08C9
:10392000F4002908F3002808F200080084000008C9
:10393000A000840A0008A100840A0008A200840AEA
:103940000008A3000800E930B501B601B001B101DB
:10395000AC00FF30AD00CB30AE00FF30AF008B12BB
:10396000B20129250A168A157308B4007208B3003B
:1039700000303402ED3003193302031CD32C2D0820
:10398000F3002C086A250A128A119B250A168A154B
:1039900073088312B6007208B500FA30B507031831
:1039A000B60A1930E62C2F08F3002E086A250A12F1
:1039B0008A119B250A168A1573088312B6007208AD
:1039C000B500BC30B5070318B60A3430B607350861
:1039D000B0070318B10A3608B1073430AB00F13034
:1039E000AA00AA0BF12CAB0BF12CF62C83120313BB
:1039F0000730B20A3202031CB12C8B160730F200DA
:103A0000F3013108F5003008F4000A128A15F22695
:103A10000A168A157308B6007208B500013036021E
:103A20005E30031935020318192D5E30B5000130E0
:103A3000B600153036027D3003193502031C242DE3
:103A40007C30B5001530B6003608A9003508A8004E
:103A50000800A201A301A401A501A001A1011F1456
:103A60000330F5009730F400F40B342DF50B342DB2
:103A7000392D831203139F149F1C562D1A30F50005
:103A8000F830F400F40B422DF50B422D00008312A8
:103A90000313A00A0319A10A003021029730031969
:103AA0002002031C3C2DF201F301080083161E08BE
:103AB0008312A2041E08A4042408A700A601220859
:103AC000A6070318A70A2308A7072708F300260854
:103AD000F2000800F2003408F5003308F400080092
:103AE0000A128A151C270A168A150A168A11A1209D
:103AF0000A168A150A168A116E210A168A150A12E2
:103B00008A1526200A168A1500308312A800A700FD
:103B10002530A6008030A5000A128A111D200A1641
:103B20008A150A128A151A200A168A150A128A1587
:103B300001200A168A150A128A11DF270A168A1529
:103B40000A128A11F1270A168A150A128A151020FC
:103B50000A168A150A168A11A5200A168A15BC307B
:103B60000313ED00BF300A168A11AA210A168A151E
:103B70000A168A11AB200A168A154E088316A4006D
:103B800083124F088316A500831250088316A600DF
:103B9000831603132D0803190E2EBC30AD018312BA
:103BA000ED00BF300A168A11AA210A168A154F3075
:103BB000F3009930F4000A128A155F200A168A155C
:103BC0000A168A15A3240A168A1529088316A8003E
:103BD000831228088316A7004530F3009930F400BB
:103BE0000A128A155F200A168A150A168A11AB2056
:103BF0000A168A154E088316A40083124F088316EE
:103C0000A500831250088316A6005930F30099309E
:103C1000F4000A128A155F200A168A1583162B08EB
:103C20000319682EAB01542E3F088312DE00831661
:103C300040088312DF00831641088312E0000A1255
:103C40008A15C4200A168A15622E3C088312DE00EB
:103C500083163D088312DF0083163E088312E000BE
:103C60000A128A15F8200A168A15622E280883126D
:103C7000AC00831627088312AB000A128A152C2188
:103C80000A168A15622E24088312DE008316250880
:103C90008312DF00831626088312E0000A128A15B9
:103CA00090200A168A15622E2C08013A0319142E48
:103CB000033A0319252E013A0319362E073A031940
:103CC000432E622E83160530AC0A2C020318AC0179
:103CD0008312051E892E34308316DA00F130D900A4
:103CE000D90B702EDA0B702E752E83120313051E5E
:103CF0007C2E8316AF01AF0A8312051A7C2E343056
:103D00008316DA00F130D900D90B842EDA0B842E19
:103D1000892E831603132F080319962EAF010C105A
:103D20000A128A1554240A168A150C140A128A15C6
:103D300066250A168A156400C82D8312C1006E30EC
:103D40004102031C232F0330F8000A30F7006430CF
:103D5000F2004108B3270A168A1598270A168A1115
:103D600017270A168A15DD270A168A1500200A1653
:103D70008A15A8000A168A1500200A168A15A900B5
:103D80000A168A1500200A168A15AA000330F800C0
:103D90006430F700410898270A168A1117270A1677
:103DA0008A15EC270A168A1500200A168A15AB0018
:103DB0000A168A1500200A168A15AC000A168A15FA
:103DC00000200A168A15AD000A168A11AA260A16BC
:103DD0008A15F3270A168A15FA270A168A15B327B1
:103DE0000A168A1117270A168A15CF270A168A1566
:103DF00000200A168A15A8000A168A1500200A163D
:103E00008A15A9000A168A1500200A168A15E427C1
:103E10000A168A11AA260A168A152808BB0029083C
:103E2000BC002A08BD003F30A801A901AA003B0838
:103E3000AB003C08AC003D08AD000A168A11AA266A
:103E40000A168A15D62F0B304102031C732FFA274E
:103E50000A168A15B3270A168A1117270A168A1511
:103E6000CF270A168A1500200A168A15A8000A16F6
:103E70008A1500200A168A15A9000A168A1500203C
:103E80000A168A15AA000330F8000A30F700410824
:103E900098270A168A1117270A168A15DD270A1687
:103EA0008A1500200A168A15AB000A168A1500200A
:103EB0000A168A15AC000A168A1500200A168A15F9
:103EC000AD000A168A11AA260A168A15F3270A16C1
:103ED0008A153F30A801A901E4270A168A11AA26EB
:103EE0000A168A15D62F3F30A801A901AA0003306F
:103EF000F80041080A168A1117270A168A15CF27D3
:103F00000A168A1500200A168A15AB000A168A15A9
:103F100000200A168A15AC000A168A1500200A1617
:103F20008A15AD000A168A11AA260A168A15D62FF6
:103F3000A000A20177080319B12FA101A10AF71B64
:103F4000A42F0310F70D9E2F0310A20D7708200257
:103F5000031CAE2F7708A00222140310F70CA10B4C
:103F6000A42F22080800F4000830F500F6017408B8
:103F7000F30007300310F30CFF3E0310031DBB2FAB
:103F8000760D7304F6000310F40D72087602031C1C
:103F9000CB2F7208F602F50BB72F76080800123EF9
:103FA000840098300318013EFF0008002808B7007D
:103FB0002908B8002A08B90008002D3E840098306E
:103FC0000318013EFF000800AA003E08AB003F08AE
:103FD000AC004008AD000800483E8400983003184B
:103FE000013EFF0008002808BE002908BF002A087B
:103FF000C00008000330F8000A30F2004108080051
:04400E00FAEFFFFFC7
:1042000000000000000000000000000000000000AE
:00000001FF
